:100000000C94D1020C94F9020C94F9020C94F902AC
:100010000C94F9020C94F9020C94F9020C94F90274
:100020000C94F9020C94F9020C94F9020C94F90264
:100030000C94F9020C94F9020C94BC220C946D23DC
:100040000C94F9020C94F9020C94F9020C94F90244
:100050000C94F9020C94F9020C94F9020C94F90234
:100060000C94F9020C94F9020C94F9020C94F90224
:100070000C94F9020C94F9020C94F9020C94F90214
:100080000C94F9020C94F9020C94F9020C94F90204
:100090000C9458220C940F220C94E9210C94F90230
:1000A00000000000003E5B4F5B3E3E6B4F6B3E1C12
:1000B0003E7C3E1C183C7E3C181C577D571C1C5E29
:1000C0007F5E1C00183C1800FFE7C3E7FF00182400
:1000D0001800FFE7DBE7FF30483A060E26297929AA
:1000E00026407F050507407F05253F5A3CE73C5ADF
:1000F0007F3E1C1C08081C1C3E7F14227F22145FBC
:100100005F005F5F06097F017F006689956A606016
:1001100060606094A2FFA29408047E040810207E10
:10012000201008082A1C08081C2A08081E10101095
:10013000100C1E0C1E0C30383E3830060E3E0E06DB
:10014000000000000000005F00000007000700142E
:100150007F147F14242A7F2A1223130864623649ED
:100160005620500008070300001C224100004122D5
:100170001C002A1C7F1C2A08083E080800807030DA
:100180000008080808080000606000201008040249
:100190003E5149453E00427F40007249494946214F
:1001A00041494D331814127F1027454545393C4AC3
:1001B00049493141211109073649494936464949DA
:1001C000291E000014000000403400000008142222
:1001D0004114141414140041221408020159090690
:1001E0003E415D594E7C1211127C7F494949363E91
:1001F000414141227F4141413E7F494949417F0977
:100200000909013E414151737F0808087F00417F81
:1002100041002040413F017F081422417F4040407F
:10022000407F021C027F7F0408107F3E4141413E17
:100230007F090909063E4151215E7F091929462699
:100240004949493203017F01033F4040403F1F209D
:1002500040201F3F4038403F631408146303047874
:1002600004036159494D43007F4141410204081094
:1002700020004141417F04020102044040404040CF
:10028000000307080020545478407F28444438383D
:1002900044444428384444287F38545454180008AF
:1002A0007E090218A4A49C787F0804047800447D89
:1002B00040002040403D007F1028440000417F4026
:1002C000007C047804787C0804047838444444387A
:1002D000FC1824241818242418FC7C08040408485A
:1002E0005454542404043F44243C4040207C1C20AB
:1002F00040201C3C4030403C44281028444C909006
:10030000907C4464544C440008364100000077005F
:1003100000004136080002010204023C2623263C6C
:100320001EA1A161123A4040207A385454555921F7
:1003300055557941225454784221555478402054DF
:100340005579400C1E52721239555555593954542D
:10035000545939555454580000457C410002457D9C
:10036000420001457C407D1211127DF0282528F0C5
:100370007C545545002054547C547C0A097F4932F2
:10038000494949323A4444443A324A4848303A4169
:1003900041217A3A42402078009DA0A07D3D424212
:1003A000423D3D4040403D3C24FF2424487E49439B
:1003B000662B2FFC2F2BFF0929F620C0887E09030E
:1003C00020545479410000447D413048484A323835
:1003D0004040227A007A0A0A727D0D19317D262961
:1003E000292F28262929292630484D402038080859
:1003F000080808080808382F10C8ACBA2F1028348D
:10040000FA00007B000008142A142222142A14087F
:100410005500550055AA55AA55AAFF55FF55FF008E
:100420000000FF00101010FF00141414FF00101043
:10043000FF00FF1010F010F0141414FC001414F757
:1004400000FF0000FF00FF1414F404FC1414171044
:100450001F10101F101F1414141F00101010F00094
:100460000000001F101010101F10101010F01000CE
:100470000000FF101010101010101010FF100000DE
:1004800000FF140000FF00FF00001F10170000FC19
:1004900004F414141710171414F404F40000FF00EB
:1004A000F714141414141414F700F7141414171474
:1004B00010101F101F141414F4141010F010F0007A
:1004C000001F101F0000001F14000000FC1400009B
:1004D000F010F01010FF10FF141414FF141010107F
:1004E0001F00000000F010FFFFFFFFFFF0F0F0F032
:1004F000F0FFFFFF0000000000FFFF0F0F0F0F0FC6
:100500003844443844FC4A4A4A347E020206060211
:100510007E027E0263554941633844443C04407E78
:10052000201E2006027E020299A5E7A5991C2A49F1
:100530002A1C4C7201724C304A4D4D30304878487C
:1005400030BC625A463D3E494949007E0101017E68
:100550002A2A2A2A2A44445F444440514A444040BB
:10056000444A51400000FF0103E080FF00000808FA
:100570006B6B083612362436060F090F060000187A
:10058000180000001010003040FF0101001F0101A1
:100590001E00191D1712003C3C3C3C0000000000EE
:1005A0002D2411241FBECFEFCDBFDFE3DEBF18E245
:1005B000A0E0B8E2E6E8F5E502C005900D92AE30A5
:1005C000B107D9F72BE2AEE0B8E201C01D92AF331C
:1005D000B207E1F712E0C1EDD2E004C02197FE01BD
:1005E0000E945028C03DD107C9F70E94D8240C941E
:1005F00087290C940000FC0154894589252F30E09F
:10060000842F90E0821B930B541710F0CF9608951F
:1006100001970895FC0192898389981761F0A38955
:10062000AE0FBF2FB11D59968C9193899F5F9F7319
:10063000938B90E008958FEF9FEF0895FC019289CE
:100640008389981731F08389E80FF11D818D90E03F
:1006500008958FEF9FEF0895FC0192892389892FD8
:1006600090E0805C9F4F821B91098F7399270895BA
:10067000CF93DF93EC01E881F9810680F781E02DCB
:100680000995EC85FD8586818F738683EC85FD85D4
:1006900085818F7585838B898A8B198ADF91CF91AC
:1006A0000895CF93DF93FC0194898589C485D5850E
:1006B000981306C08D818F7D8D83DF91CF91089532
:1006C000A589AE0FBF2FB11DA75ABF4F2C918589A9
:1006D00090E001968F739927858B80E48C83A485A5
:1006E000B58512962C93948985899813E6CFA485B5
:1006F000B58515968C9115978F7D15968C93878966
:100700008823D9F2808D80931301178AD6CFDC011C
:100710001C96ED91FC910FB607FE03C0258125FDC7
:1007200004C0248125FD0C9451030895EF92FF929B
:100730000F931F93CF93DF93EC0181E0898B9C890A
:100740008D8998131CC0AC85BD8514968C91149727
:1007500085FF15C012966C93AC85BD8580E4149618
:100760008C93EC85FD8585818F7D858381E090E08C
:10077000DF91CF911F910F91FF90EF90089580919D
:10078000110180FF08C080911301888F8E898093AA
:10079000130181E08F8BF62E0C8910E00F5F1F4F45
:1007A0000F731127E02E8D898E1104C0CE010E9497
:1007B0008703F9CFEC89EC0FFD2FF11DE75AFF4FAE
:1007C000F0820C8BEC85FD8585818062CECFCF9346
:1007D000DF93FC0121892223C9F0EC0180911101F2
:1007E00080FF08C080911301808F86898093130158
:1007F00081E0878BEC85FD85858185FD03C0848143
:1008000086FD04C0CE010E948703F4CFDF91CF9113
:100810000895AF92BF92CF92DF92EF92FF920F9323
:100820001F93CF93DF936C017B018B01040F151F86
:10083000EB015E01AE18BF08C017D10759F06991EE
:10084000D601ED91FC910190F081E02DC601099552
:10085000892B79F7C501DF91CF911F910F91FF90FF
:10086000EF90DF90CF90BF90AF90089581E0089512
:10087000CF93DF9390E0FC01E058FC4620812F3FAE
:1008800071F0FC01EA59FC46A08130E2A39FD0013F
:100890001124BC5F6130710529F411962C93DF910E
:1008A000CF910895845B9C46EC01E881EF3F89F08D
:1008B000CD014096E80FF92FF11D9FB7F8941296DD
:1008C0002C9380816230710539F4886080839FBFEA
:1008D000E6CFF0E0E0E0F1CF877FF8CF8B3210F485
:1008E0000C9438040895282F30E0F901EE5CFC46A2
:1008F000E081EE2309F1E13021F0F0F0E63098F0EC
:1009000008954091010A245B3C46F90120812C5F47
:1009100081E090E001C0880F2A95EAF78095842352
:100920008093010A089580E1E89FF0011124E05AC4
:10093000F54F81818F7E818308950F931F93CF930D
:10094000082F10E0F801E058FC46C081CF3FB9F015
:100950008B3210F40E947304F801EA59FC46E081DE
:1009600080E2E89FF0011124FC5F8085C82381E0CC
:1009700090E009F480E0CF911F910F91089580E0FD
:1009800090E0F9CFFF920F931F93CF93DF938B32B9
:10099000D8F4082F10E0F801E058FC46F0809FEFF3
:1009A000F91691F0EB010E947304F801EA59FC4634
:1009B000E08180E2E89FF0011124FC5F80818F21BB
:1009C00059F0CD2B39F4F682DF91CF911F910F9121
:1009D000FF900895F582F8CFD801A45BBC468C91B6
:1009E000309771F08F3F61F07096E80FF11D9FB75F
:1009F000F8948081CD2B39F4877F80839FBFE4CF2B
:100A0000F0E0E0E0F4CF8860F8CFCF92DF92EF9291
:100A1000FF920F931F93CF93DF93EC016A017B0149
:100A2000022F8989882339F0E881F9810288F389C6
:100A3000E02DCE01099598898091E205892B80935C
:100A4000E2051FB7F89460E070E281EA97E0A70141
:100A500096010E94E22769017A018FEFC81AD80A2D
:100A6000E80AF80AF694E794D794C794EC85FD85D4
:100A700086818D7F8683EC85FD8586818683198AB4
:100A8000A09123110A2E000CBB0BA70196010E9416
:100A9000DA2720E034E040E050E00E94B027EC8507
:100AA000FD85C20ED31EE41EF51EC086D186EC85E0
:100AB000FD850783EC85FD858681806C8683EC85CA
:100AC000FD858581806885838E8562E070E00E9467
:100AD0006E048F8561E070E00E94C2048F8561E042
:100AE00070E00E946E041FBFDF91CF911F910F91A4
:100AF000FF90EF90DF90CF900895CF93DF938FB763
:100B0000F89420919C2930919D2940919E295091E3
:100B10009F29E091BA0A9091B60A90FF06C02F5F14
:100B20003F4F4F4F5F4FE091BA0A8FBFA091A62968
:100B3000B091A729C091A429D091A5290E94CF27BF
:100B4000EC9F9001ED9F300D1124620F731F811DEA
:100B5000911DDF91CF9108952FB7F8946091982956
:100B60007091992980919A2990919B292FBF08957E
:100B70000895EF92FF920F931F93CF93DF937C0121
:100B8000EB018B01040F151FC017D10759F0D701D6
:100B9000ED91FC910480F581E02D6881C7010995F4
:100BA0008993F2CFDF91CF911F910F91FF90EF903A
:100BB00008950F931F93CF93DF93EC018B018091E6
:100BC000C008E881F9810480F581E02D86FD13C01D
:100BD000612FCE010995182FE881F9810480F581F4
:100BE000E02D602FCE010995082FC801DF91CF912C
:100BF0001F910F910895CE010995082FE881F98181
:100C00000480F581E02D612FCE010995182FEDCFDD
:100C100000006093C4088091C30887FFFCCF8091D7
:100C2000C40808958F929F92AF92BF92CF92DF92A5
:100C3000EF92FF920F931F93CF93DF93FC01808578
:100C4000882319F081FF0EC07894DF91CF911F9116
:100C50000F91FF90EF90DF90CF90BF90AF909F905B
:100C60008F90089580FFF1CF82849384A484B5840B
:100C7000C12CD12C760110E09401A501B601C70169
:100C8000A0E00E94442899F1217030E040E050E05B
:100C900060E070E080E090E00E944428D9F0D0E06D
:100CA000C0E0103370F4C12FC695C695C69580E29A
:100CB000C89FE0011124C05FDB4F812F8770C80FF0
:100CC000D11DCF01810F911DDC0152968C9198812D
:100CD000892B88839401A501B601C70101E00E9418
:100CE000292849015A016B017C011F5FC5CF868409
:100CF0009784A088B188C12CD12C760110E2940190
:100D0000A501B601C701A0E00E94442809F49DCFC7
:100D1000217030E040E050E060E070E080E090E082
:100D20000E944428D9F0D0E0C0E0103370F4C12F05
:100D3000C695C695C695B0E2CB9FE0011124C05F71
:100D4000DB4F812F8770C80FD11DCF01810F911DFF
:100D5000DC0152968C919881892B88839401A5019E
:100D6000B601C70101E00E94292849015A016B011F
:100D70007C011F5FC4CFFC016F3F710581F180854D
:100D800081FD2DC0603271055CF581E090E002C00C
:100D9000880F991F6A95E2F780959095092E000CAF
:100DA000AA0BBB0B428553856485758584239523E7
:100DB000A623B72382879387A487B58782859385E7
:100DC000A485B585892B8A2B8B2B49F4868597853D
:100DD000A089B189892B8A2B8B2B09F41086089561
:100DE0006052710981E090E002C0880F991F6A95F6
:100DF000E2F780959095092E000CAA0BBB0B468557
:100E000057856089718984239523A623B723868714
:100E10009787A08BB18BD2CFFC016F3F7105E9F1B1
:100E2000603371051CF082E08087089580858160C1
:100E3000808760327105C4F481E090E002C0880FC1
:100E4000991F6A95E2F7092E000CAA0BBB0B42858D
:100E5000538564857585842B952BA62BB72B8287AC
:100E60009387A487B58708956052710981E090E067
:100E700002C0880F991F6A95E2F7092E000CAA0B91
:100E8000BB0B4685578560897189842B952BA62BD2
:100E9000B72B86879787A08BB18B0895E0ECF8E09D
:100EA00020812E7F2083FC0117820895E0ECF8E07A
:100EB00082818E7F82830895E0ECF8E082818160F8
:100EC00082830895FC014830510508F082C06830E3
:100ED000710508F07EC08689823051F1833099F126
:100EE000813031F487E090E0841B950BAB01BC01AD
:100EF0002330310579F5440F551FE40FF51F81E0CC
:100F000090E09C01062E02C0220F331F0A94E2F7E4
:100F1000438D548D242B352B685F7F4F02C0880F83
:100F2000991F6A95E2F780959095822393234FC08D
:100F300087E090E0DC01A61BB70BBD01DC01A41B20
:100F4000B50BAD01D5CF87E090E0861B970BBA01BA
:100F5000AC01CECF21303105E9F4440F551FE40F29
:100F6000F51FCB010896A90102C0440F551F8A95B1
:100F7000E2F7CA01438D548D842B952B02C0220FBA
:100F8000331F6A95E2F72095309528233923238F64
:100F9000348F089522303105E9F4440F551FE40FD2
:100FA000F51FCB01089621E030E0D90102C0AA0F5D
:100FB000BB1F8A95E2F7CD0102C0220F331F6A954D
:100FC000E2F7822B932B238D348D822B932B838FEF
:100FD000948F0895232BE9F7440F551FE40FF51F55
:100FE000CB01089621E030E0A90102C0440F551F53
:100FF0008A95E2F7CA0102C0220F331F6A95E2F711
:10100000822B932B80959095238D348D8ECF0895D0
:10101000FC016370668B8481958126813781613004
:1010200039F0633029F080879187228733870895CC
:10103000208731878287938708952F923F924F921E
:101040005F926F927F928F929F92AF92BF92CF9258
:10105000DF92EF92FF920F931F93CF93DF93CDB761
:10106000DEB76A97CDBFDEBF898F9A8F69837A8397
:101070004A01D22E0F8318873701BC2CDC01599608
:101080002D913C915A972115310509F012C11896FE
:101090008D919C911997681779070CF0D4C11A9615
:1010A0008D919C91481759070CF0CDC14C2C512CB7
:1010B000B6E0CB9E600D711D11246B877C871616E0
:1010C00017060CF0C0C1EA2DF0E0E987FA8793E03B
:1010D000EE0FFF1F9A95E1F7EF87F88BCF01840F92
:1010E000951F181619060CF0AEC1A98DBA8D589629
:1010F0008C91811104C0BFEABD1508F4D394A98D69
:10110000BA8DED91FC9111970284F385E02DCD010C
:101110000995B5E0DB9EC0011124E981FA81EB83DA
:10112000FC83312C212C9C0120563F4F2F8B388F74
:101130004A2D50E04D8B5E8BEF89F88DE20DF31D4B
:1011400044918D829E82D12CC12C69817A81620D5D
:10115000731D698B7A8B842F90E08B8B9C8BE98D30
:10116000FA8DA081B18140FF7FC0F1E0BF126CC059
:10117000AF126AC01C96ED91FC912F813885A401B5
:101180004C0D5D1D69897A89898D9A8D0995EB8948
:10119000FC89F595E7954E2F5FEFC51AD50A6D814D
:1011A0007E818D899E89680F791F6D837E8398E08B
:1011B000C916D10481F6AFEF2A1A3A0AEB81FC81F5
:1011C000E40DF51DEB83FC83F5E02F16310409F0E7
:1011D000B3CF2F81388526153705B9F0A98DBA8D83
:1011E000ED91FC91B1E0BB1254C0AB1252C06981C9
:1011F0007A816B5F7F4F0088F189E02D830128E0C1
:1012000030E0A401898D9A8D0995A98DBA8DED9153
:10121000FC9111970688F789E02DCD016A96CDBF24
:10122000DEBFDF91CF911F910F91FF90EF90DF9084
:10123000CF90BF90AF909F908F907F906F905F9076
:101240004F903F902F9009941E96ED91FC91EF8066
:10125000F88409851A8592014D815E816B817C81BC
:10126000898D9A8D099593CF2F813885261537055D
:1012700009F48DCF31E0B31207C0A31205C01C964C
:10128000ED91FC9193017BCF1E96ED91FC91730142
:10129000E0CF6B857C85641975090684F785E02DA0
:1012A00073010F8518899201A401898D9A8D099582
:1012B000ACCFF90134969491329745915491D91A53
:1012C000B7E0DB9E400D511D1124F90125913491A9
:1012D0002B8B3C8BFA0125903490FA013296749056
:1012E00031963491398B329664903196449041E036
:1012F0004C1518F04A1508F07FC0662D062C000C1E
:10130000770B6B837C83842D042C000C990B8D83CD
:101310009E83A98DBA8DED91FC9111970284F3857E
:10132000E02DCD010995512CD12CC12CEA2DF0E0F6
:10133000E987FA872B2D30E02B873C87A401440DE9
:10134000511D47FC5A954F8B588F69817A81660DE4
:10135000711D67FC7A956D877E877989C71608F0BD
:1013600054CF2C2D30E04D815E81420F531FA98553
:10137000BA854A9FC0014B9F900D5A9F900D112432
:10138000FC01E80DF91DEF87F88B852D612C4F8945
:10139000588D420F531F4D8B5E8B671408F050C061
:1013A00044244394480E877041F4C1010196EB89AF
:1013B000FC89E20DF31DD4901C01D7FE19C0A98D44
:1013C000BA8DED91FC91662D70E0B1E0BB1219C0B1
:1013D000AB1217C02D853E85620F731F0484F585FF
:1013E000E02D2F8138854D895E89898D9A8D0995EB
:1013F000DD0C6394842DD1CF1D821E821B821C8242
:1014000088CF4B815C81640F751FAB85BC856A9F5B
:10141000C0016B9F900D7A9F900D112469817A8194
:10142000680F791F0684F785E02DEF80F884098521
:101430001A859D014F855889898D9A8D0995D8CF38
:10144000570CC3948ACF6A96CDBFDEBFDF91CF9190
:101450001F910F91FF90EF90DF90CF90BF90AF90D2
:101460009F908F907F906F905F904F903F902F90C4
:1014700008958F929F92AF92CF92EF92FF920F9327
:101480001F93CF93DF93EC01262F898D9A8D0097C0
:1014900009F051C06A30D1F41C861D868D8948E060
:1014A000849F900111248E859F85820F931F8E87C4
:1014B0009F8781E090E0DF91CF911F910F91FF9086
:1014C000EF90CF90AF909F908F9008956D3089F3FB
:1014D000CC88AD888F898823C1F08C859D8536E0C6
:1014E000C39E800D911D11244885598548175907C1
:1014F00064F44E855F851C861D8638E0A39EC0017E
:101500001124840F951F8E879F87EA88FB8808899E
:1015100019894E855F856C857D85CE010E941D08E9
:101520002C898C859D8546E0249F800D911D11247A
:101530008C879D87BECF6A3069F41C861D86FC01AE
:101540003896E4912D898E859F85E29F800D911DAF
:101550001124ADCF6D3009F4ACCFFC013496349139
:10156000631708F4A6CF3296E491E61708F4A1CFEA
:10157000FC01329685909490462F431B342F47E010
:10158000349F800C911C1124F401329634913196D1
:10159000E4913323A9F1EE2399F1CC88F401359637
:1015A000E491AD884F89442301F10E2E000CFF0B0E
:1015B000E30FF11DCE9EA001CF9E500D11246C852E
:1015C0007D85460F571F68857985641775076CF40C
:1015D0004E855F851C861D86FC013896E491AE9E83
:1015E000400D511D11244E875F87EA88FB880889CA
:1015F00019894E855F856C857D85CE010E941D0809
:10160000F4013496E4912C898C859D85E29F800DB0
:10161000911D11248DCF6F927F928F929F92AF92E6
:10162000BF92CF92DF92EF92FF920F931F93CF93CF
:10163000DF93EC016B015A0139014801E881F9811E
:101640000284F385E02D0995E881F9810288F38908
:10165000E02D87019301A501B601CE010995A501F1
:10166000480D591D41505109E881F9810288F389DB
:10167000E02D9301B601CE010995E881F98100883A
:10168000F189E02D9401A501B601CE010995C60CA2
:10169000D71CB60161507109E881F9810088F18990
:1016A000E02D9401A501CE010995E881F981068814
:1016B000F789E02DCE01DF91CF911F910F91FF901F
:1016C000EF90DF90CF90BF90AF909F908F907F90E2
:1016D0006F9009946F927F928F929F92AF92BF9278
:1016E000CF92DF92EF92FF920F931F93CF93DF93EE
:1016F0005C01EB016A01490138018701DC01ED91D0
:10170000FC916217730719F5641675062CF0962D77
:10171000872D3A01C92ED82E9601261937092F5F39
:101720003F4F048CF58DE02DA301BE01C501099545
:10173000DF91CF911F910F91FF90EF90DF90CF90AD
:10174000BF90AF909F908F907F906F9008954615B7
:10175000570591F42617370724F0892D4B01C22F26
:10176000D82F9E01281939092F5F3F4F068CF78D1E
:10177000E02DA601B401DACF0284F385E02D0995AE
:10178000D501ED91FC910488F589E02D8301940148
:10179000A601BE01C5010995D501ED91FC91068810
:1017A000F789E02DC501DF91CF911F910F91FF9037
:1017B000EF90DF90CF90BF90AF909F908F907F90F1
:1017C0006F900994EF92FF920F931F93DC011A968A
:1017D0000D911C911B9718962D913C911997ED91A5
:1017E000FC9100A0F1A1E02D7B0150E040E070E011
:1017F00060E009951F910F91FF90EF9008954F922F
:101800005F926F927F928F929F92AF92BF92CF9290
:10181000DF92EF92FF920F931F93CF93DF936C01B0
:101820002B015A0139014801DC01ED91FC91028440
:10183000F385E02D0995E201640C751CD601ED914C
:10184000FC91C615D7055CF40088F189E02D87016D
:101850009401A501BE01C60109952196EFCF068826
:10186000F789E02DC601DF91CF911F910F91FF9075
:10187000EF90DF90CF90BF90AF909F908F907F9030
:101880006F905F904F9009948F929F92AF92BF920A
:10189000CF92DF92EF92FF920F931F93CF93DF933C
:1018A000EC015B014A016901E881F9810284F38559
:1018B000E02D099595012C0D3D1D21503109E88140
:1018C000F9810488F589E02D78018401A401B5012E
:1018D000CE010995E881F9810688F789E02DCE01CE
:1018E000DF91CF911F910F91FF90EF90DF90CF90FC
:1018F000BF90AF909F908F9009948F929F92AF92DC
:10190000BF92CF92DF92EF92FF920F931F93CF93EC
:10191000DF93EC015B014A0169017801E881F981FB
:101920000284F385E02D0995C80CD91C860101506D
:101930001109E881F9810488F589E02D9501A40158
:10194000B501CE010995E881F9810688F789E02D76
:10195000CE01DF91CF911F910F91FF90EF90DF901B
:10196000CF90BF90AF909F908F9009940895EF9281
:10197000FF920F931F93DC01ED91FC9100A0F1A168
:10198000E02D09951F910F91FF90EF9008950F930F
:101990001F93DC01ED91FC91068CF78DE02D0995EC
:1019A0001F910F9108950F931F93DC01ED91FC910E
:1019B000048CF58DE02D09951F910F910895DC01A0
:1019C000ED91FC910084F185E02D09942F923F92D6
:1019D0004F925F926F927F928F929F92AF92BF923F
:1019E000CF92DF92EF92FF920F931F93CF93DF93EB
:1019F000CDB7DEB72697CDBFDEBF3C016A012D8390
:101A00003E83EB82FC825801A41AB50AB7FE03C0DC
:101A1000B194A194B1088D809E80861A970A97FE92
:101A200003C09194819491088A149B045CF0902FD8
:101A3000812F0D811E819D838E839C2D8D2D6B01A9
:101A4000692F782F0C151D055CF09D818E816D83AB
:101A50007E83692F782F902F812F8601C92ED82E53
:101A60001601201A310A2B012D813E81421A530A98
:101A700057FE03C0519441945108710137FE03C0D1
:101A80003FEFE31AF30AF594E7948D819E81861760
:101A900097075CF5A1E0B0E0A983BA83C016D10630
:101AA0004CF1D301ED91FC910484F585E02D2B815F
:101AB0003C81A8016D817E818A149B041CF04D81BC
:101AC0005E81B801C3010995E418F508F7FE0AC064
:101AD0002D813E8189819A81280F391F2D833E8374
:101AE000E20CF31C0F5F1F4FD9CF2FEF3FEF29837D
:101AF0003A83D4CF2696CDBFDEBFDF91CF911F9121
:101B00000F91FF90EF90DF90CF90BF90AF909F909C
:101B10008F907F906F905F904F903F902F9008959F
:101B200008950F9391E090939529109294296093D2
:101B30009229709393294093912920939029109290
:101B40008F2910928E2900938D29880F80938C29DC
:101B500023E030E044E050E080919129882341F077
:101B600020938A2930938B2980918C298E7F0BC0FA
:101B700080919029882351F040938A2950938B2992
:101B800080918C2981608093A70808C08091912959
:101B9000811104C080919029882311F380919429A8
:101BA0008823E1F3809194298330B1F280919029C8
:101BB000882321F080918E290F9108958091942996
:101BC000823031F0853031F0813031F480E0F4CF73
:101BD00081E0F2CF83E0F0CF84E0EECFE0EAF8E0FE
:101BE00091859066918722E030E020938A29309396
:101BF0008B2980937C2910927B29089581E0809322
:101C00007B2910927C2993E09093AA089091AB08CD
:101C100091FF10C010928829E0917929F0917A29DA
:101C200009958093872985E090E080938A29909395
:101C30008B290895109289298093862986E090E067
:101C4000F4CF8F929F92AF92BF92CF92DF92EF929A
:101C5000FF92CF93DF9360342DE0720723E0820779
:101C6000910508F454C0611525E372072CE0820742
:101C7000910508F445C060387F448241910508F021
:101C800046C0C8E7D0E020E432E44FE050E0809066
:101C9000002890900128A0900228B0900328C50148
:101CA000B4010E94E22769017A018AE0C81AD108CA
:101CB000E108F108C501B40120E432E44FE050E04E
:101CC0000E94E227DE010E94CF2728EE33E040E0A9
:101CD00050E00E94E227C21AD30AE40AF50AF694F9
:101CE000E794D794C794C092A608DF91CF91FF9054
:101CF000EF90DF90CF90BF90AF909F908F9008951E
:101D0000CCE2D1E020E83AE146E050E0C0CFC8EEB6
:101D1000D3E020EA36E841E050E0B9CF609377297C
:101D200070937829089560937529709376290895A2
:101D3000E0917729F0917829309741F01092742939
:101D400010927329099580917329089580E0089570
:101D5000E0917529F0917629309759F030917229E8
:101D600020917129321728F01092722980937129DD
:101D700009940895E091722980917129E81730F44F
:101D8000F0E0EF50F74D808190E008958FEF9FEFE6
:101D9000089590917229809171292FEF3FEF981744
:101DA00048F4E92FF0E0EF50F74D208130E09F5FDD
:101DB00090937229C9010895809171299091722997
:101DC000891B990B0895CF92DF92EF92FF920F93A8
:101DD0001F93CF93DF937C018A01EB016B01C40E4B
:101DE000D51ECC15DD0551F06991D701ED91FC911F
:101DF0000190F081E02DC7010995F3CFC801DF9173
:101E0000CF911F910F91FF90EF90DF90CF900895A9
:101E10002091732927FF08C021E030E0FC012283D4
:101E2000338390E080E0089580917429E82FF0E0FA
:101E3000EF58F74D60838F5F8093742980937329E7
:101E400081E090E00895DC01ED91FC91008CF18D32
:101E5000E02D61E009940F9380918A2990918B295C
:101E60000197A1F480919529811112C0062F20E0DD
:101E70004091732961E778E2809170280E94910D6A
:101E800010927429109273290F91089580E0F8CF71
:101E900081E0F6CF60937028109274291092732914
:101EA0000895CF93DF9360916A2A8BEF99E20E94A5
:101EB0004A0F60E08BEF99E20E94080FCFE3DAE26D
:101EC0006B8D8BEF99E20E94080F6C8D8BEF99E27E
:101ED0000E94080F22968AE2CF34D80789F78BEF49
:101EE00099E2DF91CF910C94230FDC01ED91FC91ED
:101EF000048CF58DE02D21E009940F9381EF98E299
:101F000080937D2990937E2980918A2990918B29B5
:101F10000197C9F480919529811117C0FA014138C0
:101F2000510510F0E0E8F0E0022F862F2E2F40E060
:101F300070E060E00E94910D1092722980937129E7
:101F400090E00F91089580E0F7CF81E0F5CFCB01CD
:101F5000BA010C94210EE0EAF8E01382168281E0C7
:101F600085831486118610928A2910928B290895F0
:101F7000109272291092712910927429109273296B
:101F800080918A2990918B29892BD9F482E090E065
:101F900080938A2990938B291092892910928829FD
:101FA00010927B2910927C2910926F28109286291A
:101FB000660F6093AC0881EE8093A90881E080935E
:101FC000A30888E99EE08093792990937A2981E794
:101FD00098E280937F299093802988EA9EE08093FD
:101FE00084299093852981EF98E2809381299093A9
:101FF000822980E880938329089510927229109293
:102000007129109274291092732980918A299091D4
:102010008B29892B41F562E070E086E10E9438044B
:1020200062E070E087E10E9438048091E3058093CC
:10203000E30581E090E080938A2990938B291092A8
:102040008E2910928F29109295291092942981EC53
:102050008093A30860EA76E881E090E00E94210E78
:1020600081E08093A508089590E080E00895E6E679
:10207000F8E2DF018D91882351F012969C9112971E
:10208000891305C015969C911597891741F188E22F
:10209000A936B80779F78081882331F091818913B7
:1020A00003C092818917D9F0339688E2EF36F8079A
:1020B00091F780916A28882389F090916628891386
:1020C00004C090916E28891751F090916828891367
:1020D00005C090916C28891301C0089580E008958F
:1020E000DC018C918F5F8930F9F08C93EC91E330B7
:1020F00030F091E0E63020F092E0E93008F090E036
:10210000292F30E0892F880F880F981B9E0FF90127
:10211000EE0FFF1FE20FF31FEA59F74DE90FF11D14
:1021200080818111DECF08951C92E0CFCF93DF93A1
:10213000FC01633040F06630A0F186E0693020F0A9
:10214000DF91CF91089580E0282F30E096E0861748
:1021500041F070E0621B730B90E06130710509F48F
:1021600093E0B90183E0660F771F8A95E1F7DF01FD
:10217000A60FB71F292F30E0ED01C20FD31F4883F0
:10218000685F7F4FE60FF71FEF01C20FD31F488331
:102190002F5F3F4FA20FB31F4C93E20FF31F4083FB
:1021A000CFCF83E0D1CFDC01ED91FC910088F189A4
:1021B000E02D23E030E0099460347105CCF02FE786
:1021C00030E0261B370BF90137FD3796BF0153E08E
:1021D000759567955A95E1F7E87FF770E80FF91F55
:1021E000660F660F660F261BE20FF11D1082089521
:1021F000DB0177FD17969D0143E0359527954A95BC
:10220000E1F7A87FB770FC01EA0FFB1F220F220F36
:10221000220F621BE60FF11D82E080830895FC010E
:102220009C01205C3F4F672B69F4408341834283CC
:102230004383448345834683478338962E173F075D
:10224000A1F7089583E0413049F484838583868330
:1022500087833896E217F307C1F708958083818357
:102260008283838338962E173F07C1F708959C0118
:10227000DB0147E09C91911112C04C938C91F901C4
:10228000E80FF11D87FDFA9590819111F3CF87E05A
:1022900090E020AD211106C011968C9308959150C5
:1022A0009C93ECCF019738978F3F980791F708954B
:1022B000CF92DF92EF92FF92CF93DF93EC016A010E
:1022C0007B010E94AC05688379838A839B83CC82DF
:1022D000DD82EE82FF8281E08887DF91CF91FF90DF
:1022E000EF90DF90CF900895CF93DF93EC010E94A1
:1022F000AC05688379838A839B8381E08887DF913B
:10230000CF910895CF92DF92EF92FF920F931F9398
:10231000CF93DF93FC01108511110BC010E0812FCA
:10232000DF91CF911F910F91FF90EF90DF90CF90B1
:102330000895EC010E94AC05C880D980EA80FB803A
:102340006C197D098E099F09CC80DD80EE80FF80AD
:102350006C157D058E059F0508F3188609850023F9
:10236000F1F2CE010E947411102FD9CFCF93DF93D9
:10237000EC0119860E94AC05688379838A839B836C
:102380001C821D821E821F8218861986DF91CF91C2
:102390000895FC011382108270E060E081810C944A
:1023A000C204CF93DF93EC0181E08B838883AB0180
:1023B000770F660B770BCE0104960E945811688147
:1023C00070E08981DF91CF910C94C204FC011382EB
:1023D00081E0808361E070E081810C94C204CF933E
:1023E000C82FCC0FEC2FEE0FFF0BE851F64D80817C
:1023F00091810E94E611E1E0EC0FEE0FFF0BE85136
:10240000F64D80819181CF910C94E6115F926F928D
:102410007F928F929F92AF92BF92CF92DF92EF9274
:10242000FF920F931F93CF93DF938C0110925A2A40
:1024300010925B2A10925C2A10925D2A10925E2AFA
:1024400010925F2A1092602A1092612A1092622ADA
:102450001092632A1092642A1092652A1092662ABA
:102460001092672A1092682A1092692A60E08FE31E
:102470009AE20E940808E80196E2692E98E2792E15
:10248000680110E000E0512C43015601F12CE12CD1
:10249000D5012D915D0130E0A701B8018FE39AE2EB
:1024A0000E946207F50131978081F40191914F01FB
:1024B000891721F03197808355245394FFEFEF1A49
:1024C000FF0A88E0E816F10419F70F5F1F4FA8E034
:1024D000CA0ED11CB8E06B0E711C08301105A1F6B4
:1024E0008091082B882309F44DC0552009F44AC077
:1024F0008091062B9091072BDC01ED91FC910190CE
:10250000F081E02D63E509958091062B9091072BD2
:10251000DC01ED91FC910190F081E02D6DE40995D5
:1025200088E0F82EFE0130E020E010E000E081912C
:1025300090E0022E02C0880F991F0A94E2F7082B40
:10254000192B2E5F3F4F2031310589F78091062BE3
:102550009091072BDC01ED91FC910190F081E02D31
:10256000612F09958091062B9091072BDC01ED914D
:10257000FC910190F081E02D602F0995FA94289646
:10258000F110D0CFDF91CF911F910F91FF90EF907D
:10259000DF90CF90BF90AF909F908F907F906F9083
:1025A0005F900C94510FCF92DF92EF92FF921F93A6
:1025B000CF93DF9388EEC82E89E2D82EF12CE12C40
:1025C00010E0D601CD91DD916D018B81882369F0FA
:1025D000CE0104960E948211882339F01B82188252
:1025E00070E060E089810E94C20488810E2C01C0E5
:1025F000880F0A94EAF7182BBFEFEB1AFB0AE4E006
:10260000EE16F104F1F68091082B882309F441C0FD
:1026100080912528811799F18091062B9091072BA5
:10262000DC01ED91FC910190F081E02D63E50995CD
:102630008091062B9091072BDC01ED91FC9101908C
:10264000F081E02D6CE409958091062B9091072B89
:10265000DC01ED91FC910190F081E02D612F099555
:10266000CFE08091062B9091072BDC01ED91FC913E
:102670000190F081E02D6FEF0995C15091F7109313
:102680002528DF91CF911F91FF90EF90DF90CF90A1
:1026900008958FEF80932528F4CFCF93DF93C8EE72
:1026A000D9E2899199910E94C91189E2C03FD80766
:1026B000C1F7DF91CF910895CF93DF93EB010E9493
:1026C0009D042881892B89F4243040F4223058F469
:1026D00086E0222331F0DF91CF91089583E0263008
:1026E000D1F78883F8CF82E0FCCF223039F020F098
:1026F000293089F781E0F5CF1882EDCF89E0F1CF5D
:102700000F931F93CF93DF93CDB7DEB72897CDBF3D
:10271000DEBF80911D28811107C083E198E20E94ED
:10272000B61181E080931D2881E080931C2888E009
:10273000E2E1F3E9DE01119601900D928A95E1F74D
:1027400080911B28811108C04AE050E060E070E0F1
:1027500083E198E20E94581183E198E20E9482117D
:10276000882309F47EC062E178E28DE090E00E9467
:102770005C1361E178E28FE090E00E945C1360E11D
:1027800078E284E090E00E945C136FE078E285E0FC
:1027900090E00E945C13FE01319690E080E010E032
:1027A00041E050E0A191B1919A01082E01C0220FA1
:1027B0000A94EAF76C91662309F45DC0122B019626
:1027C0008430910579F78091082B882309F456C04D
:1027D00080910E28811799F18091062B9091072BFB
:1027E000DC01ED91FC910190F081E02D63E509950C
:1027F0008091062B9091072BDC01ED91FC910190CB
:10280000F081E02D62E409958091062B9091072BD1
:10281000DC01ED91FC910190F081E02D612F099593
:102820000FE08091062B9091072BDC01ED91FC913C
:102830000190F081E02D6FEF0995015091F7109311
:102840000E28809112288330E9F08091112883307E
:10285000E1F0809110288330D9F080910F288330E7
:10286000D1F084E090E02896CDBFDEBFDF91CF911C
:102870001F910F91089520951223A1CF8FEF809380
:102880000E28DFCF90E080E0EECF81E090E0EBCF4C
:1028900082E090E0E8CF83E090E0E5CF2F923F9296
:1028A0004F925F926F927F928F929F92AF92BF9260
:1028B000CF92DF92EF92FF920F931F93CF93DF930C
:1028C000CDB7DEB7CC55D109CDBFDEBF84E064966D
:1028D0008FAF649787E065968FAF65978E01055B34
:1028E0001F4FF801329686E0DF011D928A95E9F7C5
:1028F0008FEFF801808381839E012F5F3F4F190185
:1029000080E4D9011D928A95E9F72E01B1E44B0EBE
:10291000511CC2010E94B61144EF51E060E070E02A
:10292000C2010E94581181E0F20181876596EFADE6
:10293000659728E0E202F0011124E20DF31D649690
:102940009FAD6497E90FF11D97FDFA95808380E0B4
:102950000E94EF11BB24BA94F12CEE24E394669606
:102960001FAE669797E0C92ED12C4101A801485FA0
:102970005F4F6D964EAF5FAF6D970E9480133C0125
:1029800053E0C516D10409F412C387E0C816D10478
:1029900009F06BC0C2010E9482118823B1F06596D4
:1029A000EFAD659798E0E902F0011124E80DF91DFB
:1029B00064968FAD6497E80FF11D87FDFA95EE20C0
:1029C00009F446C0108281E0E826A1E06A1671048D
:1029D00009F043C087E0C82ED12CF110D0C2659613
:1029E000EFAD659728E0E202F0011124E80DF91D32
:1029F00064968FAD6497E80FF11D87FDFA951082FC
:102A0000C2010E947411BE016D5A7F4FC1010E9424
:102A1000371181E0F11083E06596EFAD659738E0FE
:102A2000E302F0011124E20DF31D64969FAD64975B
:102A3000E90FF11D97FDFA958083E12C6114710473
:102A400069F5FF2009F4A5C087E0C82ED12C9BC2F0
:102A500081E0F11083E08083B6CFB3E06B167104A0
:102A600069F7E1E0FE1609F4BACF81E090E0C45ABC
:102A7000DF4FCDBFDEBFDF91CF911F910F91FF9050
:102A8000EF90DF90CF90BF90AF909F908F907F900E
:102A90006F905F904F903F902F90089542E06416A2
:102AA000710409F065C251E083E0F512CDCF65965F
:102AB0009FAD659767969FAF6797A8E09A02F00170
:102AC0001124E80DF91D64969FAD6497E90FF11D7F
:102AD00097FDFA9580836696BFAD6697BF5F669651
:102AE000BFAF66975401D40147E050E0D8966C918F
:102AF000D89770E091E080E06115710509F490E0ED
:102B0000292F382FFD01F9966B96EEAFFFAF6B972B
:102B100081E090E06B96EEADFFAD6B97C1906B9648
:102B2000EEAFFFAF6B97CC2009F4AAC0EC2DF0E01C
:102B30006115710509F4A7C06E177F0761F537FDB0
:102B4000A3C02F5F3F4F2430310571F5D8018C931E
:102B500011964C9311979FEF980F12969C93129792
:102B600013964C9313979EEF980F14969C9314977B
:102B700015964C931597835016968C931697179627
:102B80004C93BB24B3946130710509F075C0B12C2E
:102B900073C081E08CCF37FF7AC0215031092C3FC0
:102BA000FFEF3F0709F454C001968830910509F002
:102BB000B1CF4150510918974F3F540709F096CFB4
:102BC00070E060E0D501D8964C9150E031E020E013
:102BD0004115510509F430E0832F922FD50126E0ED
:102BE00030E0D096EC91D097EE2309F45DC1F0E08F
:102BF0004115510509F45BC14E175F0709F04AC042
:102C000097FD56C101968430910509F04BC0D8015B
:102C10006C9311962C93119712966C93129781E0F6
:102C2000820F13968C93139714966C93149782E0EB
:102C3000820F15968C93159716966C9316972D5FA9
:102C400017962C93BB24B39441305105A9F49FCF20
:102C5000F801808341839FEF980F928343839EEF17
:102C6000980F94834583835086834783BB24B39412
:102C70006130710509F08BCF93E0C92ED12C7BC157
:102C800030E020E091CFBF0121E030E08DCF2FEF89
:102C90003FEF8ACF97FF0FC101978C3FEFEF9E0761
:102CA00009F4FBC02150310918972F3F320709F072
:102CB00098CF6F5F7F4FFFEFAF1ABF0A6830710583
:102CC00009F080CF5E0129E1A20EB11C23E030E0C3
:102CD000DD24DA946B96AEAEBFAE6B9790E080E0E9
:102CE0006B96EEADFFAD6B97C1906B96EEAFFFAFFD
:102CF0006B974C2D50E069964EAF5FAF6997452BAF
:102D000009F412C1D8018C9311962C9361E070E004
:102D100041E050E0DC01A41BB50BB7FD22C0F90176
:102D2000E40FF51FEE0FFF1FEE0FFF1FEE0FFF1F4B
:102D3000E80DF91DEA0FFB1FE081CE12DEC0FB019A
:102D4000EE0FFF1FE00FF11FA82FA41BA083A42FDD
:102D5000A20FA1836F5F7F4F4F5F5F4F44305105DC
:102D6000CCF241E050E0DA01A80FB91FA930B1055B
:102D700014F5F901E41BF50BEE0FFF1FEE0FFF1F1B
:102D8000EE0FFF1FE80DF91DEA0FFB1FE081CE12C9
:102D9000B7C0FB01EE0FFF1FE00FF11FA82FA41B10
:102DA000A083A42FA20FA1836F5F7F4F4F5F5F4F60
:102DB00044305105C4F2643071050CF0A4C0F80130
:102DC000D282D382D482D582D682D78261E070E06B
:102DD00041E050E0DA01A80FB91FA930B10514F5A0
:102DE000F901E40FF51FEE0FFF1FEE0FFF1FEE0FAF
:102DF000FF1FE80DF91DEA0FFB1FE081CE128EC008
:102E0000FB01EE0FFF1FE00FF11FA42FA80FA083FF
:102E1000A42FA20FA1836F5F7F4F4F5F5F4F44309E
:102E20005105C4F241E050E0DC01A41BB50BB7FD35
:102E300026C0F901E41BF50BEE0FFF1FEE0FFF1F7D
:102E4000EE0FFF1FE80DF91DEA0FFB1FE081CE1208
:102E500068C0FB01EE0FFF1FABE4B0E0AC0FBD1F7D
:102E6000EA0FFB1FA82FA41BA083A22FA41BA183E2
:102E70006F5F7F4F4F5F5F4F44305105ACF264305E
:102E800071050CF451C0BB24B3946996EEADFFAD4F
:102E90006997319709F0F0CE7ACEBB24B3944130D4
:102EA000510509F074CEE8CE90E080E0FBCEAF0192
:102EB00081E090E0F7CE8FEF9FEFF4CE8FEFD80157
:102EC0008C9311968C93119712968C93129713965C
:102ED0008C93139714968C93149715968C9315973F
:102EE00016968C93169717968C936696BFAD669739
:102EF000B03449F5BB24BA94BFCE44E050E02CCFA7
:102F000044E050E053CFBB24B39469962EAD3FAD5F
:102F100069972130310509F0AFCE39CE44E050E059
:102F20007CCF44E050E0A6CF01968830910509F0AF
:102F3000D7CEF8E0AF0EB11C2430310509F4BECF76
:102F400024E030E0C7CE6796DFAC6797DD2009F15B
:102F50008D2D815065968FAF659781E0F11080E0EF
:102F6000F82E0E944D138F2D0E94EF11BB24BA94AE
:102F700027E0C22ED12C21E06216710489F431E0E1
:102F8000F31609F472CD0E94D312C1010E940612F9
:102F9000F4CCBE016D5A7F4FC1010E943711DDCFC5
:102FA00043E06416710479F7F110EDCF5ECD2A96F7
:102FB0008FAD2A97811108C044EF51E060E070E0C6
:102FC000C2010E945811E12CC2010E948211882383
:102FD00009F45CC05FEFB5121AC081E0E826BB209F
:102FE00009F44CC0B81609F45EC08FEFB8124EC099
:102FF00081E39AE20E94E61185E19AE20E94E611DD
:1030000083E29AE20E94E61187E09AE23DC0EE2058
:10301000C9F0D8011196EC91119798E0E902F001FE
:103020001124E80DF91D8C91E80FF11D87FDFA952B
:10303000108212966D96EEADFFAD6D97EA17FB0705
:1030400049F7CBCF81E0B11083E0D8011196EC9124
:10305000119728E0E202F0011124E80DF91D9C917E
:10306000E90FF11D97FDFA95808312966D964EAD8E
:103070005FAD6D974A175B0749F7AFCF81E39AE2DF
:103080000E94E61183E29AE20E94E61153E065167F
:10309000710409F4EACC84E06816710409F473CF72
:1030A00082E090E0E4CC85E19AE2ACCFFC010190B3
:1030B0000020E9F73197AF01481B590BBC018BE6A3
:1030C0009AE20C9409048F929F92AF92BF920F9351
:1030D0001F93CF93DF93CDB7DEB7A197CDBFDEBFF0
:1030E00019A2423008F44AE08E010F5D1F4F842E72
:1030F000912CB12CA12CA50194010E94E227E62F6E
:10310000B901CA01EA30DCF4E05DD801EE938D012B
:10311000232B242B252B79F790E080E0109719F0D2
:10312000CD010E945618A196CDBFDEBFDF91CF9191
:103130001F910F91BF90AF909F908F900895E95C81
:10314000E4CFCF93DF934AE00E946318EC0180E163
:1031500095E90E9456188C0F9D1FDF91CF9108951D
:10316000CF93DF930E945618EC0180E195E90E940D
:1031700056188C0F9D1FDF91CF9108950E947B29D7
:103180000C94F228CF92DF92EF92FF920F93FC0102
:10319000C12CB9E0DB2EBDE3EB2EF12CC082D18235
:1031A000E282F3821482158281E090E08683978325
:1031B000C0900028D0900128E0900228F0900328C9
:1031C000F694E794D794C79490E04C155D056E058E
:1031D0007F0540F4F694E794D794C7949F5F9630A8
:1031E000A1F797E004600187892F8095A82FA1702F
:1031F000B0E084E0AA0FBB1F8A95E1F791629A2B99
:1032000080E0232B09F480E4982B90870F91FF90A6
:10321000EF90DF90CF9008950F931F93CF93DF939C
:10322000CDB7DEB72A97CDBFDEBF8C01FC01878109
:1032300081110CC01086118612861386148615869D
:1032400016861786108A118A81E087838091E305AC
:10325000F8019681892B8093E30561E070E083811A
:103260000E946E0461E070E0F80184810E946E04A7
:103270008091C10884608093C1088091C0088162F8
:103280008093C0084091F3295091F4296091F52969
:103290007091F6290091F7292091F9293091FA29A6
:1032A000CE0101960E94C21899858A859093C00824
:1032B0008093C1082A96CDBFDEBFDF91CF911F91C9
:1032C0000F9108955F926F927F928F929F92AF922B
:1032D000BF92CF92DF92EF92FF920F931F93CF9303
:1032E000DF93CDB7DEB76297CDBFDEBF3C010B8762
:1032F0001C872D873E87042F4F87588B698B7A8BCD
:1033000029893A894B855C856D857E85CE0101963C
:103310000E94C21859841A85D30118968C9188236B
:1033200019F081FF18C0F8945092C0081093C1089A
:103330006296CDBFDEBFDF91CF911F910F91FF90BD
:10334000EF90DF90CF90BF90AF909F908F907F9045
:103350006F905F90089580FFE7CFF301828493849C
:10336000A484B584C12CD12C7601B0E09401A501D0
:10337000B601C701A0E00E944428A9F1217030E005
:1033800040E050E060E070E080E090E00E9444287F
:10339000E9F090E080E0B03370F48B2F869586954D
:1033A0008695F0E28F9FC0011124805F9B4F2B2FE9
:1033B0002770820F911DFC01408193012B0F311D5D
:1033C000F901428BFC012081287F20839401A50113
:1033D000B601C70101E00E94292849015A016B0189
:1033E0007C01BF5FC3CFD3011E968D909D90AD90A1
:1033F000BC905197C12CD12C7601B0E29401A5016B
:10340000B601C701A0E00E94442809F48DCF2170C5
:1034100030E040E050E060E070E080E090E00E944A
:103420004428E9F090E080E0B03370F48B2F86956B
:1034300086958695E0E28E9FC0011124805F9B4FA8
:103440002B2F2770820F911DFC01408193012B0FC0
:10345000311DF901428BFC012081287F20839401DA
:10346000A501B601C70101E00E94292849015A01BE
:103470006B017C01BF5FC2CF2F923F924F925F9250
:103480006F927F928F929F92AF92BF92CF92DF9274
:10349000EF92FF920F931F93CF93DF93CDB7DEB7D9
:1034A000C655D109CDBFDEBF2F961FAE2F979E0107
:1034B0002F5F3F4F790180E4F90111928A95E9F776
:1034C0008E01055B1F4FF8011082118212828FEF6F
:1034D00080836E01F1E4CF0ED11CC6010E94B611AB
:1034E00081E0F601818744EF51E060E070E0C601C1
:1034F0000E94581143E02F966FAD2F97C7010E948D
:103500009610512C712C62961FAE629766246394BC
:1035100064E0262E312C4C2C6396DFAE63970E941C
:1035200080136C01F4E02F16310409F47FC027E00A
:103530002216310409F4B5C033E02316310409F032
:10354000CFC0552009F4FFC1F80180818F3F09F0F9
:10355000D0C10E94371090916C28292F990F330BFE
:1035600067962EAF3FAF679790916A28892E990F83
:10357000990890916E28492F990F550B65964EAF7B
:103580005FAF6597A6E6B8E270E060E0A82EB12CC8
:103590006196AEAFBFAF619790E080E06196EEAD0F
:1035A000FFAD619721916196EEAFFFAF6197022E5B
:1035B000000C330B2A153B0509F08EC1009709F06A
:1035C00045C111964C911197042E000C550BA41671
:1035D000B50609F03BC112964C911297042E000CCF
:1035E000550BA416B50609F031C1CB01880F991F00
:1035F000680F791FF8016083CB01019681836E5FAC
:103600007F4F628341E0541609F4ACC152E0551675
:1036100009F4B1C163E0C616D10409F461C084E0C5
:10362000C816D104B1F182E090E05CC0E6E6F8E2B1
:1036300029E011922A95E9F743E050E06FEF7FEF20
:10364000C8010E948029A70190E080E0FA0130E0E3
:1036500020E08230910549F02230310531F085308B
:10366000910519F025303105D1F462E060832F5FB8
:103670003F4F31962830310561F70196485F5F4F23
:103680008830910519F7872D0E94EF1157E0252EFC
:10369000312C0E94D312C7010E94061240CF108223
:1036A000E6CF842D63969FAD63970E948211882395
:1036B00071F02F966FAD2F9740E0611003C041E08D
:1036C000711043E0C7010E94961081E0682691E0E6
:1036D000C916D104F1F4772019F121E07212D9CF83
:1036E00081E090E0CA5ADF4FCDBFDEBFDF91CF91BE
:1036F0001F910F91FF90EF90DF90CF90BF90AF9010
:103700009F908F907F906F905F904F903F902F9001
:103710000895E3E0CE16D10401F5F1E07F12E0CF89
:1037200040E02F966FAD2F97C7010E949610842D11
:1037300063969FAD63970E947411CE01825B9F4F89
:103740000E94701041E0711043E02F966FAD2F97EB
:10375000C7010E94961066246394C114D10409F035
:1037600054C0711096CF0E944D1391E0970D2F9683
:10377000BFAC2F9749E0B41609F44FC052E05B1577
:1037800008F04DC065E0EB2D81E06B1528F488E072
:103790008B1508F046C080E0282F30E0482F440FFA
:1037A000440F841B8E0FF901EE0FFF1FE20FF31F72
:1037B000EA59F74DE80FF11D908362969FAD62972D
:1037C0009F5F62969FAF62970E943710582E8111BB
:1037D00005C06296EFAD6297E93029F541E07110BE
:1037E00043E06B2DC7010E94961033E0232E312C4D
:1037F000F1E0CF16D10409F470CF33E0C316D10441
:1038000009F047CF711045CF6BCF22E0C216D1042B
:1038100079F731E073123DCFA6CFE0E0BCCFEB2DBE
:10382000BACF82E0B9CF41E0711043E06B2DC70100
:103830000E949610CE01825B9F4F0E94701081E023
:10384000711080E0782E0E94EF11D2CF61157105C2
:10385000D1F4FC01EA59F74D4381042E000C550BBD
:103860002417350781F44681042E000C550B2417CC
:10387000350749F4F80180839C012D5F3F4F218378
:1038800006968283BFCE8130910531F1009781F495
:1038900065964EAD5FAD659724173507E9F4281599
:1038A0003905D1F4F801108224E0218388E0E9CFC2
:1038B0008230910589F467964EAD5FAD6797241706
:1038C000350751F42815390539F422E0F801208331
:1038D00034E0318386E0D5CF01968330910509F03D
:1038E0005DCE6F5F7F4F13966330710509F050CE48
:1038F00089CE842D63969FAD63970E9482118823A1
:1039000009F480CE5801480143E0840E911CF50172
:1039100021915F0160962FAF609740E0622F6110A8
:1039200009C00E943710813009F083E0482F60966B
:103930006FAD6097C7010E9496108A149B0439F7F7
:1039400031E063265FCE81E39AE20E94E61185E1D1
:103950009AE20E94E61183E29AE20E94E61187E071
:103960009AE206C081E39AE20E94E61183E29AE2BB
:103970000E94E6114FCE85E19AE2EFCF2F923F925F
:103980004F925F926F927F928F929F92AF92BF926F
:10399000CF92DF92EF92FF920F931F93CF93DF931B
:1039A000CDB7DEB7C35BD109CDBFDEBF88E0EAE1AA
:1039B000F3E9DE01AB56BF4F01900D928A95E1F716
:1039C00088E0E2E2F3E9DE01A356BF4F01900D92D9
:1039D0008A95E1F788E0EAE2F3E9DE01AB55BF4FF3
:1039E00001900D928A95E1F710E4CE0101967C01D9
:1039F000FC01212F11922A95E9F78FEF89831E018F
:103A000081E8280E311CC1010E94B611CE018557F4
:103A10009F4F0E94B611FE01EF5BFF4FC355DF4F72
:103A2000E883F983CD5AD04011921A95E9F7512CC9
:103A3000CF54DF4F1882C15BD040CE54DF4F188285
:103A40001982C25BD040712C612C84E090E0C1559A
:103A5000DF4F88839983CF5AD040D12CC12C63E0AB
:103A6000462E0E9480138C01C155DF4FE881F981F9
:103A7000CF5AD040E430F10509F44BC0E0F433975D
:103A800009F4EBC181E090E0CD54DF4FCDBFDEBF44
:103A9000DF91CF911F910F91FF90EF90DF90CF902A
:103AA000BF90AF909F908F907F906F905F904F905E
:103AB0003F902F900895C155DF4F88819981CF5A4B
:103AC000D0408530910509F405C10697D9F6CE544A
:103AD000DF4F88819981C25BD0400196861597059A
:103AE00009F070C0E52DF0E0EE0FFF1F85EA90E0D1
:103AF0008C0F9D1FE80FF91F4081518170E060E03D
:103B0000CE0185579F4F0E945811712C612C05E002
:103B1000A2C140E450E06FEF7FEFC7010E9480290F
:103B200058EEA52E59E2B52ED12CC12C852C912C06
:103B3000F501819191915F018C149D044CF10E94DB
:103B4000E611FFEFCF1ADF0A24E0C216D10481F795
:103B50000115110501F50E94582724E030E040E0EE
:103B600050E00E94B02769830E944D134AEF50E055
:103B700060E070E0C1010E945811B12CCE54DF4FBB
:103B800018821982C25BD040712C612C06E063C19F
:103B90000E94C911D6CF0130110541F483E05816B7
:103BA00009F4D3C15394B12C04E055C1023011057E
:103BB00029F4552009F4CBC15A94F5CF03301105EF
:103BC00091F760CFC1010E948211811104C0F101FF
:103BD00080858111DBCFCF54DF4FF881C15BD040AE
:103BE000F1113DC0E52DF0E0EE0FFF1F85E990E0FB
:103BF0008C0F9D1FE80FF91F4081518170E060E03C
:103C0000C1010E945811F701E60DF71DE081EE0F8A
:103C1000FF0BE851F64D808191810E94E61106E08C
:103C200010E091E0CF54DF4F9883C15BD040CE01CC
:103C30008F5B9F4F0E9406120E94D312C155DF4F27
:103C4000C880D980CF5AD040C155DF4F0883CF5AA2
:103C5000D040C055DF4F1883C05BD04002CFCF5457
:103C6000DF4FE881C15BD040E13009F5F701E60D97
:103C7000F71DE081EE0FFF0BE851F64D8081918139
:103C80000E94C911E52DF0E0EE0FFF1F8DE990E0D5
:103C90008C0F9D1FE80FF91F4081518170E060E09B
:103CA000C1010E94581106E010E092E0BBCFCF5452
:103CB000DF4FE881C15BD040E23009F067CFFFEF12
:103CC0006F1A7F0A06E010E0CF54DF4F1882C15B05
:103CD000D040ADCFCE54DF4F88819981C25BD040B8
:103CE00001968615970509F047C08091232A811116
:103CF0000ECFCF54DF4F2881C15BD040211110C0BF
:103D000044EF51E060E070E0C1010E94581105E00D
:103D100010E081E0CF54DF4F8883C15BD04087CF74
:103D2000C1010E948211882309F4F1CE0E944D1333
:103D3000CE54DF4F68817981C25BD040CE018F5B6A
:103D40009F4F0E94DC100E9458278701060D171D07
:103D500024E030E040E050E00E94B027F8016083AA
:103D6000CE54DF4F68827982C25BD040CF54DF4FA0
:103D70001882C15BD04008CFCE0185579F4F0E946B
:103D80008211A82E8823B1F098EEC92E99E2D92E7F
:103D900064EF71E0F601819191916F010E94D11160
:103DA000F0EFCF16F9E2DF0699F70430110559F16B
:103DB000BA2C03C004301105A1F0CE0185579F4FE6
:103DC0000E947411F701E60DF71D808180130DC06C
:103DD00068EC70E083E29AE20E94D1112FEF621A40
:103DE000720ABB2009F493CE0EC008EE19E264EF0C
:103DF00071E0F801819191918F010E94D111F9E256
:103E0000003F1F07A1F7B090312AB11080CE0E9469
:103E10007D054B015C0120E4820E2DE0921E23E023
:103E2000A21EB11C80E488168DE0980683E0A806E7
:103E3000B10438F40E947D0586169706A806B906D7
:103E4000C8F30E947D05681579058A059B05C8F3AE
:103E5000BB24B39403E010E0EACE93E0C916D1048A
:103E600031F040E050E0BA01C1010E945811F70161
:103E7000E60DF71DE081EE0FFF0BE851F64D0190C6
:103E8000F081E02D808181110BC0F10180858111CD
:103E900011C048EC50E060E070E0C1010E94581190
:103EA0000330110509F4EECD0430110599F282E0DA
:103EB00090E0EACDC1010E948211882389F3FFEFCF
:103EC0006F1A7F0ACE54DF4F88819981C25BD04040
:103ED000019686159705A9F420E46216710431F560
:103EE000FE01EF5BFF4F4082418242824382448267
:103EF0004582468247823896E215F305A1F7712C78
:103F0000612CF701E60DF71DE081EE0FFF0BE85184
:103F1000F64D64EF71E0808191810E94D111B3016F
:103F2000CE018F5B9F4F0E94DC10BACF80E46816F1
:103F300071042CF7C355DF4FE881F981CD5AD04089
:103F400020E411922A95E9F7DACF512C2CCE83E0A8
:103F5000582E29CE2F923F924F925F926F927F926E
:103F60008F929F92AF92BF92CF92DF92EF92FF9289
:103F70000F931F93CF93DF93CDB7DEB7C455D1090D
:103F8000CDBFDEBFCE018F5B9F4F0E94B611FE01F9
:103F9000319680E4DF011D928A95E9F7C12CD12C7E
:103FA0007601812C912C54012D961EAE1FAE2D97BB
:103FB0002F961EAE1FAE2F9765961CAE1DAE1EAE81
:103FC0001FAE6597412C512C320110E000E0609645
:103FD000EFAF60976196FFAF61970E9480131C015D
:103FE0000430110509F4ACC000F501151105C9F143
:103FF0000330110509F46BC181E090E0CC5ADF4F2A
:10400000CDBFDEBFDF91CF911F910F91FF90EF9059
:10401000DF90CF90BF90AF909F908F907F906F90E8
:104020005F904F903F902F9008950530110509F44F
:10403000A3C00830110501F787E00E949D04892B79
:1040400051F466E970E083E29AE20E94D11189E1BD
:1040500095E90E94B018B3E02B16310409F055C061
:104060002DC083E29AE20E94E61181E39AE20E9467
:10407000E6112D96EEADFFAD2D97319711F183E24C
:104080009AE20E94E61181E39AE20E94E61185E13C
:104090009AE20E94C91187E09AE20E94C911F1E0F8
:1040A0002F163104E9F1B0F032E02316310409F49F
:1040B00042C043E02416310409F49ECF10E000E032
:1040C00024C085E19AE20E94E61187E09AE20E940C
:1040D000E611E5CF83E195E90E94B0180E945827C8
:1040E00024E931E140E050E00E94B027AB01BC017F
:1040F0004C505E4F6F4F7F4FCE018F5B9F4F0E94A2
:1041000058110E944D1304E010E00E94D3126096F3
:104110008FAD609761969FAD61970E9406125DCF4B
:104120002D968EAD9FAD2D97A1E08A272D968EAF4F
:104130009FAF2D97C3CF0E944D1308E010E0E5CF4D
:10414000CE018F5B9F4F0E9482118823F1F208EE0F
:1041500019E268EC70E0F801819191918F010E9461
:10416000D111F9E2003F1F07A1F70E94AC052B0116
:104170003C0105E010E0C9CF2D962EAD3FAD2D9747
:104180002130310579F187E00E949D04892B29F0C7
:1041900034E02316310409F410C10E94AC059B01E0
:1041A000AC01241935094609570965962CAF3DAF76
:1041B0004EAF5FAF659782E295E90E94561865960B
:1041C0006CAD7DAD8EAD9FAD65970E94A1188FE35C
:1041D00095E90E94B0182D961EAE1FAE2D9703E0F4
:1041E00010E093CF029768F4C114D104E104F10404
:1041F00041F40E94AC056B017C01C418D508E608A7
:10420000F70842E0241A310852E02516310470F410
:1042100081149104A104B10409F0D4C00E94AC053A
:104220004B015C0184189508A608B708C114D10495
:10423000E104F10409F469CF81149104A104B104EB
:1042400009F463CFC401C814D904EA04FB0408F4D8
:10425000C601092E000CAA0BBB0B8C159D05AE05E3
:10426000BF0571F182E090E02F968EAF9FAF2F9740
:1042700089E495E90E94B01885E595E90E945618F1
:10428000C701B6010E94A11889E695E90E94561857
:10429000C501B4010E94A1188DE795E90E94561846
:1042A0004AE02F96EEADFFAD2F97BF01FF0F880BB1
:1042B000990B0E94631880E195E90E9456188FCFF0
:1042C000A1E0B0E02F96AEAFBFAF2F97D1CF2D9624
:1042D0002EAD3FAD2D972E964FAD2E9761E070E03D
:1042E000232BD1F465968CAD9DADAEADBFAD65977A
:1042F00043E0843F9140A105B10560F065962CAD87
:104300003DAD4EAD5FAD6597293E3340410551054A
:1043100070F141E070E060E060968FAD609761966B
:104320009FAD61970E940F112F96AEADBFAD2F9735
:104330001197F9F483E29AE20E94E61181E39AE28E
:104340000E94E61185E19AE20E94C91187E09AE293
:104350000E94C911F3E02F16310409F44DCE24E078
:104360002216310409F4D1CE82E090E047CE42E03B
:10437000D1CF2F96EEADFFAD2F97329789F483E220
:104380009AE20E94C91181E39AE20E94C91185E173
:104390009AE20E94E61187E09AE20E94E611DACFE3
:1043A00081E39AE20E94E61183E29AE20E94C91137
:1043B00085E19AE20E94C911EECF2D961EAE1FAE86
:1043C0002D97A3CEC114D104E104F10409F03ACF32
:1043D0009CCE1F920F920FB60F9211242F933F93F2
:1043E0004F935F936F937F938F939F93AF93BF93FD
:1043F000EF93FF938BE69AE20E945103FF91EF91B6
:10440000BF91AF919F918F917F916F915F914F91EC
:104410003F912F910F900FBE0F901F9018951F92F4
:104420000F920FB60F9211242F933F934F935F93E8
:104430006F937F938F939F93AF93BF93EF93FF936C
:10444000E091772AF091782A818181FD2FC06081E7
:1044500080917D2A8F5F8F7390917E2A891741F01A
:10446000E0917D2AF0E0E559F54D618F80937D2A3A
:104470008091042B9091052B009739F0DC01ED9190
:10448000FC910190F081E02D0995FF91EF91BF9192
:10449000AF919F918F917F916F915F914F913F91DC
:1044A0002F910F900FBE0F901F9018958081EDCF28
:1044B0001F920F920FB60F9211242F933F934F9399
:1044C0005F936F937F938F939F93AF93BF9340912D
:1044D00098295091992960919A2970919B298091EE
:1044E0009629909197292091A2293091A329420FD2
:1044F000531F611D711D2091A0293091A129820FA8
:10450000931F883E23E0920730F0885E93404F5F10
:104510005F4F6F4F7F4F80939629909397294093D9
:1045200098295093992960939A2970939B29809197
:104530009C2990919D29A0919E29B0919F29019637
:10454000A11DB11D80939C2990939D29A0939E2924
:10455000B0939F2981E08093B60ABF91AF919F915C
:104560008F917F916F915F914F913F912F910F901C
:104570000FBE0F901F9018951F920F920FB60F92BB
:1045800011242F933F934F935F936F937F938F9358
:104590009F93AF93BF93CF93EF93FF93C091AB08DB
:1045A000C2FF0AC010928929109288291092872987
:1045B00084E00E94EE0D14C0C6FF2FC080918629B2
:1045C000813051F480918929E0918429F0918529E5
:1045D00090E0099510928629C0FF14C00E94FE0D3C
:1045E000FF91EF91CF91BF91AF919F918F917F916B
:1045F0006F915F914F913F912F910F900FBE0F9050
:104600001F90189580E48093AB0881E00E94EE0D26
:104610008091AB0885FFE4CFE1CFC7FF5CC0C3FF4B
:1046200008C010928929109288291092872983E066
:10463000C0CF8091A90880668093A9088091AB08BB
:1046400081FF2CC080918829882349F08091AB0894
:1046500084FF05C082E08093AA0881E0AACF9091F0
:104660008829809187299817A8F4E091882980915A
:104670007F2990918029E80FF92FF11D8081809387
:10468000AD08809188298F5F8093882983E080938B
:10469000AA08A6CF82E08093AA088BCF909189299F
:1046A00080918329981790F48091AD08E091892931
:1046B0002091812930918229E20FF32FF11D80830F
:1046C000809189298F5F80938929E0CF86E080934C
:1046D000AA0882E06ECF85E06CCF1F920F920FB6D2
:1046E0000F9211242F933F938F939F93EF93FF93F8
:1046F0008091A508982F9C70E1F08091A50894E026
:1047000082FF93E0909394298093A50881E090E044
:1047100080938A2990938B2910929529FF91EF918C
:104720009F918F913F912F910F900FBE0F901F90EF
:10473000189586FF4EC020919129909190298091E3
:10474000A50884FF15C080918D29882379F083E026
:104750008093A40885E0809394291092952981E0A4
:1047600090E080938A2990938B29D8CF81E0F0CF75
:1047700080918F29821790F4E0918F29809192295E
:1047800090919329E80FF92FF11D80818093A8085B
:1047900080918F298F5F80938F29C0CF80918E2940
:1047A000891760F484E090E080938A2990938B29A4
:1047B00080918C2981608093A708B0CF80918D294A
:1047C000882329F083E08093A40881E0C4CF81E0AE
:1047D000FACF87FF40C090918E2980919029981739
:1047E000D8F48091A808E0918E2920917D293091FC
:1047F0007E29E20FF32FF11D808380918E298F5F38
:1048000080938E299091902980918E298917D8F4D0
:1048100082E08093A40882CF80918D29882389F03B
:1048200087E08093A40882E08093942910929529D0
:1048300081E090E080938A2990938B2910929029AF
:104840006DCF85E0EECF80918D29882311F087E030
:10485000BACF85E0B8CF86E07ECF0F931F93EBE60B
:10486000FAE21282138248EE53E060E070E0448383
:1048700055836683778386EA94E98083918380E613
:1048800098E08487958788E1868789E1878780E437
:10489000808B128A138A148A158A86E2868B178A7D
:1048A000108E1092042B1092052BA3EFB9E200E0BA
:1048B00019E02DE330E00D931D932D933C93139756
:1048C00014961D921C92159781E090E016968D9398
:1048D0009C931797ABEFB9E212961D921C92139717
:1048E00014964D935D936D937C93179780EC94E9A8
:1048F0008D939C93A6E0BBE2ED93FC93119781E02E
:1049000012968C93EFE3FAE21282138228E030E0F1
:104910002483358326833783208731872287338713
:10492000168A1486158616861786858B848B2FEF3C
:104930003FEF228B338B208B318B878B108E118E28
:10494000128E88EE94E98083918385E39AE20E9437
:10495000B611E1E3FAE28EE090E081839283108267
:10496000138287E29AE20E94B611E3E2FAE28CE057
:1049700090E0818392831082138289E19AE20E94FF
:10498000B611E5E1FAE282E090E081839283108241
:1049900013828BE09AE20E94B611E7E0FAE283E02C
:1049A00090E081839283108213821F910F9108956A
:1049B00088ED90E084BF9093610080E094E2A4EFE2
:1049C000B0E08093002890930128A0930228B09330
:1049D000032880910206866080930206809100067B
:1049E000816080930006809102068F7C809302068E
:1049F0008091A0008F788093A00080910206806152
:104A0000809302061092E20581E08093E40583E042
:104A10008093010A8FEF90E08093260A9093270AF3
:104A200080E890E08093380A9093390A80933A0A9C
:104A300090933B0A80933C0A90933D0A8BE08093CD
:104A4000000A8091E50581608093E5058091E50588
:104A500082608093E505E0E8FAE037E02FEF90E828
:104A600085E031832487958780837096E03C4AE017
:104A7000F407B9F780E094E08093A6299093A729E2
:104A80008091A6299091A7292FEF30E0B9010E94CB
:104A900013286093A4297093A5298091A629909149
:104AA000A729E8EEF3E0BF010E9413286093A22932
:104AB0007093A3298091A6299091A729BF010E94F4
:104AC00013288093A0299093A1292093BC0A3093A6
:104AD000BD0A8091B50A81608093B50A84E0809315
:104AE000B00A8091B00A81608093B00A789481E323
:104AF0009AE28093E8299093E92983E29AE28093ED
:104B0000EA299093EB2985E19AE28093EC2990932E
:104B1000ED2987E09AE28093EE299093EF29C8EE81
:104B2000D9E28E01D801ED90FD908D0170E060E03A
:104B3000F70181810E94C20461E070E0D701119603
:104B40008C910E946E04B9E2003F1B0759F770E098
:104B500060E087E00E94380462E070E08DE00E942F
:104B6000380462E070E08FE00E94380462E070E098
:104B700084E00E94380462E070E085E00E9438041E
:104B800064EF71E0899199910E94D111E9E2C03FEF
:104B9000DE07B1F784E08093060681E08093080683
:104BA00080910B0680FFFCCF9FB7F8948091100690
:104BB000609111069FBF762F682F072E000C880B7F
:104BC000990B611571058105910511F00E94A727C8
:104BD0008091062B9091072BDC01ED91FC910684CE
:104BE000F785E02D40E052EC61E070E0099580E748
:104BF00080936A2A8BEF99E20E94FD0F60916A2AE6
:104C00008BEF99E20E944A0F61E28BEF99E20E94DA
:104C1000080F8BEF99E20E94230F10925A2A1092EC
:104C20005B2A10925C2A10925D2A10925E2A1092E2
:104C30005F2A1092602A1092612A1092622A1092C2
:104C4000632A1092642A1092652A1092662A1092A2
:104C5000672A1092682A1092692A0E94510F609167
:104C60006A2A8BEF99E20E944A0F61E88BEF99E282
:104C70000E94080F8BEF99E20E94230F60916A2A2D
:104C80008BEF99E20E944A0F6FEE8BEF99E20E9440
:104C9000080F8BEF99E20E94230FC0E0D0E0FF24C1
:104CA000F39401E010E08091062B9091072BDC013A
:104CB000ED91FC910084F185E02D0995892B49F156
:104CC0008091062B9091072BDC01ED91FC910084E3
:104CD000F185E02D0995892BE1F08091062B9091CB
:104CE000072BDC01ED91FC910284F385E02D099501
:104CF0008B36910511F4F092082B8091062B909140
:104D0000072BDC01ED91FC910284F385E02D0995E0
:104D1000D7CF0E9480136C018091F1299091F229E4
:104D2000009779F0019709F463C00E94D31288EAD2
:104D300099E20E940612209709F4B5CF0E94000064
:104D4000B2CFE090F029EE2DF0E0EE0FFF1FE8511A
:104D5000F64DA080B180C5010E94E611C114D104B6
:104D600041F50093F1291093F229C5010E94C91160
:104D70008091F02920E4829FC00111248E559C4629
:104D800048EA59E230E020E0FA01E20FF31FDC01CB
:104D9000A20FB31F6C9160832F5F3F4F2830310506
:104DA00099F70896485F5F4FA9E2483E5A0751F7C6
:104DB000BCCFB1E0CB1AD108E2E0CE16D104C0F6E8
:104DC000C5010E94C911F3E0EF120EC01092F02944
:104DD000E091F029F0E0EE0FFF1FE851F64D8081E1
:104DE00091810E94E611C4CFE394E092F029F0CFC4
:104DF000E091F029F0E0EE0FFF1FE656FC4601902F
:104E0000F081E02D0995019721F41092F12910927B
:104E1000F2290E944D1389CF8F929F92AF92BF9239
:104E2000CF92DF92EF92FF92CF93DF93EC016881F4
:104E300079818A819B81611571058105910521F434
:104E400064E279ED8BE597E02DE133EF41E050E04E
:104E50000E94B02749015A019B01AC01A7EAB1E4C5
:104E60000E94CF276B017C01ACEEB4EFA501940149
:104E70000E94DD27C60ED71EE81EF91EF7FE06C0EB
:104E800081E0C81AD108E10880E8F80AC882D9820E
:104E9000EA82FB82C701B6019F77DF91CF91FF9035
:104EA000EF90DF90CF90BF90AF909F908F9008953C
:104EB0008F929F92AF92BF92CF92DF92EF92FF922A
:104EC0006091042870910528809106289091072808
:104ED000611571058105910521F464E279ED8BE599
:104EE00097E02DE133EF41E050E00E94B027490107
:104EF0005A019B01AC01A7EAB1E40E94CF276B01E4
:104F00007C01ACEEB4EFA50194010E94DD27C60E32
:104F1000D71EE81EF91EF7FE06C081E0C81AD108A8
:104F2000E10880E8F80AC0920428D0920528E092AF
:104F30000628F0920728C701B6019F77FF90EF90EF
:104F4000DF90CF90BF90AF909F908F900895609327
:104F500004287093052880930628909307280895C5
:104F6000052E97FB1EF400940E94C72757FD07D01B
:104F70000E94E22707FC03D04EF40C94C7275095FB
:104F80004095309521953F4F4F4F5F4F0895909535
:104F90008095709561957F4F8F4F9F4F08950E9428
:104FA0000428A59F900DB49F900DA49F800D911D86
:104FB00011240895B7FF0C94CF270E94CF27821B9E
:104FC000930B0895A1E21A2EAA1BBB1BFD010DC075
:104FD000AA1FBB1FEE1FFF1FA217B307E407F507A9
:104FE00020F0A21BB30BE40BF50B661F771F881F85
:104FF000991F1A9469F760957095809590959B011B
:10500000AC01BD01CF010895A29FB001B39FC001C3
:10501000A39F700D811D1124911DB29F700D811DE4
:105020001124911D0895AA1BBB1B51E107C0AA1FA3
:10503000BB1FA617B70710F0A61BB70B881F991F39
:105040005A95A9F780959095BC01CD01089597FDDB
:105050001094002E083098F00850232F342F452F3D
:10506000562F672F782F892F912DF4CF1594979570
:1050700087957795679557954795379527950A951D
:10508000AAF71124002D08950024A7FD00942A17E3
:1050900030054005500560057005800590050895B0
:1050A000EE0FFF1F0590F491E02D09940F931F93CD
:1050B000CF93DF938230910510F482E090E0E0918D
:1050C0003D2BF0913E2B30E020E0B0E0A0E03097A7
:1050D00099F42115310509F44AC0281B390B2430F5
:1050E0003105D8F58A819B816115710589F1FB0134
:1050F00082839383FE0111C040815181028113811B
:1051000048175907E0F04817590799F4109761F0CC
:1051100012960C93129713961C933296CF01DF913F
:10512000CF911F910F91089500933D2B10933E2B2B
:10513000F4CF2115310551F04217530738F0A9017A
:10514000DB019A01BD01DF01F801C1CFEF01F9CF09
:1051500080933D2B90933E2BCDCFFE01E20FF31FAA
:10516000819391932250310928833983D7CF20919D
:105170003B2B30913C2B232B41F420910A2830917A
:105180000B2820933B2B30933C2B20910828309107
:1051900009282115310541F42DB73EB740910C285F
:1051A00050910D28241B350BE0913B2BF0913C2BAB
:1051B000E217F307A0F42E1B3F0B2817390778F0EE
:1051C000AC014E5F5F4F2417350748F04E0F5F1F4D
:1051D00040933B2B50933C2B819391939FCFF0E0D6
:1051E000E0E09CCFCF93DF930097E9F0FC0132978A
:1051F00012821382A0913D2BB0913E2BED0130E045
:1052000020E01097A1F420813181820F931F20911B
:105210003B2B30913C2B2817390709F061C0E093F4
:105220003B2BF0933C2BDF91CF910895EA01CE17F1
:10523000DF07E8F54A815B819E0141155105B1F711
:10524000E901EA83FB8349915991C40FD51FEC17FB
:10525000FD0761F4808191810296840F951FE90119
:1052600088839983828193818A839B83F0E0E0E045
:1052700012968D919C9113970097B9F52D913C91C1
:105280001197CD010296820F931F20913B2B3091F5
:105290003C2B2817390739F6309751F510923D2BE2
:1052A00010923E2BA0933B2BB0933C2BBCCFC283E0
:1052B000D38340815181840F951FC817D90761F4AA
:1052C0004E5F5F4F88819981480F591F40835183FA
:1052D0008A819B81828393832115310509F0B0CFA8
:1052E000E0933D2BF0933E2B9ECFFD01DC01C0CF20
:1052F00012821382D7CF81E090E0F8940C94872932
:10530000DC0101C06D9341505040E0F70895F894DE
:02531000FFCFCD
:105312001228112810280F28F4015E01FA009600C5
:10532200C8009600640032008813AC0DC409E8037B
:105332000000000300010200000101000000000063
:105342000000000000000000000005040005060245
:10535200040103000100010203020100020304052B
:105362000203050402020005020105000401010412
:1053720004040303030305050303000001012010D5
:105382000120400410020801020102040804020183
:1053920004081020040820103C1A4E14BE1CAA1F38
:1053A20001010200000200000101020000020000EF
:1053B20002020202020202020000020303020000D1
:1053C20000000203030200000202020202020202C1
:1053D20000000200000201010000020000020101BF
:1053E20000000000000000000000000000030000B8
:1053F200000003000003000000000300000300009F
:105402000000010101010000000001000000000095
:105412000000010000000000000001000000000088
:10542200000000000000000000000303030300006E
:105432000000000000030000000000000003000064
:10544200000003030303000000000300000000004B
:10545200000003000000000000000303030300003B
:105462000000000000000000000001010101000036
:105472000001000000010000000100000001000026
:105482000000010101010000000000010001000014
:105492000000010000010000000100000001000006
:1054A2000000000096030904FB02E7032C030A0331
:1054B2001E03D31005053803360400000000080F50
:1054C200E30E3410B60CDC0EC90EBA0EFD0FB80F87
:1054D200AB0FA70F4A0F2B0F230F7D0F750F930EE4
:1054E2008E0E00000000390A09043410900D620784
:1054F200B60CDF0CB70CD30CC70CE60CB60C0808C4
:1055020007087D0C440CFF0BE20B6A0B0B0B0D0A18
:1055120000537461727400436C61707065642100A1
:105522004F6E6520706C617965722D3E20726561E7
:105532006374696F6E5F74696D653A200047616DCF
:1055420065204F7665720054776F20706C617965C3
:10555200727300506C6179657220312072656163EB
:1055620074696F6E3A2000506C6179657220322046
:105572007265616374696F6E3A200057696E6E6579
:04558200723A200059
:0E5586000024F4000100000000003F2B800014
:00000001FF
