:100000000C94D1020C94F9020C94F9020C94F902AC
:100010000C94F9020C94F9020C94F9020C94F90274
:100020000C94F9020C94F9020C94F9020C94F90264
:100030000C94F9020C94F9020C9480220C94312354
:100040000C94F9020C94F9020C94F9020C94F90244
:100050000C94F9020C94F9020C94F9020C94F90234
:100060000C94F9020C94F9020C94F9020C94F90224
:100070000C94F9020C94F9020C94F9020C94F90214
:100080000C94F9020C94F9020C94F9020C94F90204
:100090000C941C220C94D3210C94AD210C94F902E5
:1000A00000000000003E5B4F5B3E3E6B4F6B3E1C12
:1000B0003E7C3E1C183C7E3C181C577D571C1C5E29
:1000C0007F5E1C00183C1800FFE7C3E7FF00182400
:1000D0001800FFE7DBE7FF30483A060E26297929AA
:1000E00026407F050507407F05253F5A3CE73C5ADF
:1000F0007F3E1C1C08081C1C3E7F14227F22145FBC
:100100005F005F5F06097F017F006689956A606016
:1001100060606094A2FFA29408047E040810207E10
:10012000201008082A1C08081C2A08081E10101095
:10013000100C1E0C1E0C30383E3830060E3E0E06DB
:10014000000000000000005F00000007000700142E
:100150007F147F14242A7F2A1223130864623649ED
:100160005620500008070300001C224100004122D5
:100170001C002A1C7F1C2A08083E080800807030DA
:100180000008080808080000606000201008040249
:100190003E5149453E00427F40007249494946214F
:1001A00041494D331814127F1027454545393C4AC3
:1001B00049493141211109073649494936464949DA
:1001C000291E000014000000403400000008142222
:1001D0004114141414140041221408020159090690
:1001E0003E415D594E7C1211127C7F494949363E91
:1001F000414141227F4141413E7F494949417F0977
:100200000909013E414151737F0808087F00417F81
:1002100041002040413F017F081422417F4040407F
:10022000407F021C027F7F0408107F3E4141413E17
:100230007F090909063E4151215E7F091929462699
:100240004949493203017F01033F4040403F1F209D
:1002500040201F3F4038403F631408146303047874
:1002600004036159494D43007F4141410204081094
:1002700020004141417F04020102044040404040CF
:10028000000307080020545478407F28444438383D
:1002900044444428384444287F38545454180008AF
:1002A0007E090218A4A49C787F0804047800447D89
:1002B00040002040403D007F1028440000417F4026
:1002C000007C047804787C0804047838444444387A
:1002D000FC1824241818242418FC7C08040408485A
:1002E0005454542404043F44243C4040207C1C20AB
:1002F00040201C3C4030403C44281028444C909006
:10030000907C4464544C440008364100000077005F
:1003100000004136080002010204023C2623263C6C
:100320001EA1A161123A4040207A385454555921F7
:1003300055557941225454784221555478402054DF
:100340005579400C1E52721239555555593954542D
:10035000545939555454580000457C410002457D9C
:10036000420001457C407D1211127DF0282528F0C5
:100370007C545545002054547C547C0A097F4932F2
:10038000494949323A4444443A324A4848303A4169
:1003900041217A3A42402078009DA0A07D3D424212
:1003A000423D3D4040403D3C24FF2424487E49439B
:1003B000662B2FFC2F2BFF0929F620C0887E09030E
:1003C00020545479410000447D413048484A323835
:1003D0004040227A007A0A0A727D0D19317D262961
:1003E000292F28262929292630484D402038080859
:1003F000080808080808382F10C8ACBA2F1028348D
:10040000FA00007B000008142A142222142A14087F
:100410005500550055AA55AA55AAFF55FF55FF008E
:100420000000FF00101010FF00141414FF00101043
:10043000FF00FF1010F010F0141414FC001414F757
:1004400000FF0000FF00FF1414F404FC1414171044
:100450001F10101F101F1414141F00101010F00094
:100460000000001F101010101F10101010F01000CE
:100470000000FF101010101010101010FF100000DE
:1004800000FF140000FF00FF00001F10170000FC19
:1004900004F414141710171414F404F40000FF00EB
:1004A000F714141414141414F700F7141414171474
:1004B00010101F101F141414F4141010F010F0007A
:1004C000001F101F0000001F14000000FC1400009B
:1004D000F010F01010FF10FF141414FF141010107F
:1004E0001F00000000F010FFFFFFFFFFF0F0F0F032
:1004F000F0FFFFFF0000000000FFFF0F0F0F0F0FC6
:100500003844443844FC4A4A4A347E020206060211
:100510007E027E0263554941633844443C04407E78
:10052000201E2006027E020299A5E7A5991C2A49F1
:100530002A1C4C7201724C304A4D4D30304878487C
:1005400030BC625A463D3E494949007E0101017E68
:100550002A2A2A2A2A44445F444440514A444040BB
:10056000444A51400000FF0103E080FF00000808FA
:100570006B6B083612362436060F090F060000187A
:10058000180000001010003040FF0101001F0101A1
:100590001E00191D1712003C3C3C3C0000000000EE
:1005A000F12311241FBECFEFCDBFDFE3DEBF18E282
:1005B000A0E0B8E2E4EDF4E502C005900D92AE30A3
:1005C000B107D9F72BE2AEE0B8E201C01D92A63028
:1005D000B207E1F712E0C1EDD2E004C02197FE01BD
:1005E0000E94F327C03DD107C9F70E949C240C94B8
:1005F0002A290C940000FC0154894589252F30E0FC
:10060000842F90E0821B930B541710F0CF9608951F
:1006100001970895FC0192898389981761F0A38955
:10062000AE0FBF2FB11D59968C9193899F5F9F7319
:10063000938B90E008958FEF9FEF0895FC019289CE
:100640008389981731F08389E80FF11D818D90E03F
:1006500008958FEF9FEF0895FC0192892389892FD8
:1006600090E0805C9F4F821B91098F7399270895BA
:10067000CF93DF93EC01E881F9810680F781E02DCB
:100680000995EC85FD8586818F738683EC85FD85D4
:1006900085818F7585838B898A8B198ADF91CF91AC
:1006A0000895CF93DF93FC0194898589C485D5850E
:1006B000981306C08D818F7D8D83DF91CF91089532
:1006C000A589AE0FBF2FB11DA75ABF4F2C918589A9
:1006D00090E001968F739927858B80E48C83A485A5
:1006E000B58512962C93948985899813E6CFA485B5
:1006F000B58515968C9115978F7D15968C93878966
:100700008823D9F2808D80931301178AD6CFDC011C
:100710001C96ED91FC910FB607FE03C0258125FDC7
:1007200004C0248125FD0C9451030895EF92FF929B
:100730000F931F93CF93DF93EC0181E0898B9C890A
:100740008D8998131CC0AC85BD8514968C91149727
:1007500085FF15C012966C93AC85BD8580E4149618
:100760008C93EC85FD8585818F7D858381E090E08C
:10077000DF91CF911F910F91FF90EF90089580919D
:10078000110180FF08C080911301888F8E898093AA
:10079000130181E08F8BF62E0C8910E00F5F1F4F45
:1007A0000F731127E02E8D898E1104C0CE010E9497
:1007B0008703F9CFEC89EC0FFD2FF11DE75AFF4FAE
:1007C000F0820C8BEC85FD8585818062CECFCF9346
:1007D000DF93FC0121892223C9F0EC0180911101F2
:1007E00080FF08C080911301808F86898093130158
:1007F00081E0878BEC85FD85858185FD03C0848143
:1008000086FD04C0CE010E948703F4CFDF91CF9113
:100810000895AF92BF92CF92DF92EF92FF920F9323
:100820001F93CF93DF936C017B018B01040F151F86
:10083000EB015E01AE18BF08C017D10759F06991EE
:10084000D601ED91FC910190F081E02DC601099552
:10085000892B79F7C501DF91CF911F910F91FF90FF
:10086000EF90DF90CF90BF90AF90089581E0089512
:10087000CF93DF9390E0FC01EA53FD4620812F3FA8
:1008800071F0FC01E455FD46A08130E2A39FD00148
:100890001124BC5F6130710529F411962C93DF910E
:1008A000CF9108958E569D46EC01E881EF3F89F087
:1008B000CD014096E80FF92FF11D9FB7F8941296DD
:1008C0002C9380816230710539F4886080839FBFEA
:1008D000E6CFF0E0E0E0F1CF877FF8CF8B3210F485
:1008E0000C9438040895282F30E0F901E858FD46AB
:1008F000E081EE2309F1E13021F0F0F0E63098F0EC
:1009000008954091010A2E563D46F90120812C5F41
:1009100081E090E001C0880F2A95EAF78095842352
:100920008093010A089580E1E89FF0011124E05AC4
:10093000F54F81818F7E818308950F931F93CF930D
:10094000082F10E0F801EA53FD46C081CF3FB9F00F
:100950008B3210F40E947304F801E455FD46E081E7
:1009600080E2E89FF0011124FC5F8085C82381E0CC
:1009700090E009F480E0CF911F910F91089580E0FD
:1009800090E0F9CFFF920F931F93CF93DF938B32B9
:10099000D8F4082F10E0F801EA53FD46F0809FEFED
:1009A000F91691F0EB010E947304F801E455FD463D
:1009B000E08180E2E89FF0011124FC5F80818F21BB
:1009C00059F0CD2B39F4F682DF91CF911F910F9121
:1009D000FF900895F582F8CFD801AE56BD468C91B0
:1009E000309771F08F3F61F07096E80FF11D9FB75F
:1009F000F8948081CD2B39F4877F80839FBFE4CF2B
:100A0000F0E0E0E0F4CF8860F8CFCF92DF92EF9291
:100A1000FF920F931F93CF93DF93EC016A017B0149
:100A2000022F8989882339F0E881F9810288F389C6
:100A3000E02DCE01099598898091E205892B80935C
:100A4000E2051FB7F89460E070E281EA97E0A70141
:100A500096010E94852769017A018FEFC81AD80A8A
:100A6000E80AF80AF694E794D794C794EC85FD85D4
:100A700086818D7F8683EC85FD8586818683198AB4
:100A8000A09123110A2E000CBB0BA70196010E9416
:100A90007D2720E034E040E050E00E945327EC85C1
:100AA000FD85C20ED31EE41EF51EC086D186EC85E0
:100AB000FD850783EC85FD858681806C8683EC85CA
:100AC000FD858581806885838E8562E070E00E9467
:100AD0006E048F8561E070E00E94C2048F8561E042
:100AE00070E00E946E041FBFDF91CF911F910F91A4
:100AF000FF90EF90DF90CF9008952FB7F89460911A
:100B000063297091642980916529909166292FBF8E
:100B100008950895EF92FF920F931F93CF93DF9361
:100B20007C01EB018B01040F151FC017D10759F091
:100B3000D701ED91FC910480F581E02D6881C7011A
:100B400009958993F2CFDF91CF911F910F91FF907B
:100B5000EF9008950F931F93CF93DF93EC018B01D8
:100B60008091C008E881F9810480F581E02D86FD3F
:100B700013C0612FCE010995182FE881F9810480F7
:100B8000F581E02D602FCE010995082FC801DF9176
:100B9000CF911F910F910895CE010995082FE881FB
:100BA000F9810480F581E02D612FCE010995182F80
:100BB000EDCF00006093C4088091C30887FFFCCF8D
:100BC0008091C40808958F929F92AF92BF92CF9266
:100BD000DF92EF92FF920F931F93CF93DF93FC016D
:100BE0008085882319F081FF0EC07894DF91CF9122
:100BF0001F910F91FF90EF90DF90CF90BF90AF903B
:100C00009F908F90089580FFF1CF82849384A48475
:100C1000B584C12CD12C760110E09401A501B60158
:100C2000C701A0E00E94E72799F1217030E040E081
:100C300050E060E070E080E090E00E94E727D9F0AB
:100C4000D0E0C0E0103370F4C12FC695C695C695AC
:100C500080E2C89FE0011124C05FDB4F812F8770C5
:100C6000C80FD11DCF01810F911DDC0152968C91CF
:100C70009881892B88839401A501B601C70101E001
:100C80000E94CC2749015A016B017C011F5FC5CF2F
:100C900086849784A088B188C12CD12C760110E27B
:100CA0009401A501B601C701A0E00E94E72709F45D
:100CB0009DCF217030E040E050E060E070E080E0E7
:100CC00090E00E94E727D9F0D0E0C0E0103370F444
:100CD000C12FC695C695C695B0E2CB9FE001112401
:100CE000C05FDB4F812F8770C80FD11DCF01810FEF
:100CF000911DDC0152968C919881892B88839401F7
:100D0000A501B601C70101E00E94CC2749015A01A3
:100D10006B017C011F5FC4CFFC016F3F710581F146
:100D2000808581FD2DC0603271055CF581E090E029
:100D300002C0880F991F6A95E2F780959095092E59
:100D4000000CAA0BBB0B42855385648575858423F3
:100D50009523A623B72382879387A487B5878285A7
:100D60009385A485B585892B8A2B8B2B49F48685A1
:100D70009785A089B189892B8A2B8B2B09F4108642
:100D800008956052710981E090E002C0880F991FB8
:100D90006A95E2F780959095092E000CAA0BBB0B83
:100DA000468557856089718984239523A623B723B7
:100DB00086879787A08BB18BD2CFFC016F3F7105DF
:100DC000E9F1603371051CF082E080870895808529
:100DD0008160808760327105C4F481E090E002C0D8
:100DE000880F991F6A95E2F7092E000CAA0BBB0B1E
:100DF0004285538564857585842B952BA62BB72B4F
:100E000082879387A487B58708956052710981E02E
:100E100090E002C0880F991F6A95E2F7092E000C36
:100E2000AA0BBB0B4685578560897189842B952B4E
:100E3000A62BB72B86879787A08BB18B0895E0EC04
:100E4000F8E020812E7F2083FC0117820895E0ECDA
:100E5000F8E082818E7F82830895E0ECF8E0828161
:100E6000816082830895FC014830510508F082C0FA
:100E70006830710508F07EC08689823051F1833078
:100E800099F1813031F487E090E0841B950BAB0140
:100E9000BC012330310579F5440F551FE40FF51FD0
:100EA00081E090E09C01062E02C0220F331F0A94BD
:100EB000E2F7438D548D242B352B685F7F4F02C0A2
:100EC000880F991F6A95E2F7809590958223932366
:100ED0004FC087E090E0DC01A61BB70BBD01DC0131
:100EE000A41BB50BAD01D5CF87E090E0861B970B17
:100EF000BA01AC01CECF21303105E9F4440F551FC2
:100F0000E40FF51FCB010896A90102C0440F551F3D
:100F10008A95E2F7CA01438D548D842B952B02C02C
:100F2000220F331F6A95E2F7209530952823392345
:100F3000238F348F089522303105E9F4440F551F73
:100F4000E40FF51FCB01089621E030E0D90102C083
:100F5000AA0FBB1F8A95E2F7CD0102C0220F331FF3
:100F60006A95E2F7822B932B238D348D822B932B62
:100F7000838F948F0895232BE9F7440F551FE40FB7
:100F8000F51FCB01089621E030E0A90102C0440F13
:100F9000551F8A95E2F7CA0102C0220F331F6A95D6
:100FA000E2F7822B932B80959095238D348D8ECFF5
:100FB0000895FC016370668B848195812681378159
:100FC000613039F0633029F0808791872287338739
:100FD0000895208731878287938708952F923F92C3
:100FE0004F925F926F927F928F929F92AF92BF9239
:100FF000CF92DF92EF92FF920F931F93CF93DF93E5
:10100000CDB7DEB76A97CDBFDEBF898F9A8F698370
:101010007A834A01D22E0F8318873701BC2CDC015A
:1010200059962D913C915A972115310509F012C11D
:1010300018968D919C911997681779070CF0D4C177
:101040001A968D919C91481759070CF0CDC14C2CE4
:10105000512CB6E0CB9E600D711D11246B877C87EF
:10106000161617060CF0C0C1EA2DF0E0E987FA87E2
:1010700093E0EE0FFF1F9A95E1F7EF87F88BCF0112
:10108000840F951F181619060CF0AEC1A98DBA8DE4
:1010900058968C91811104C0BFEABD1508F4D39411
:1010A000A98DBA8DED91FC9111970284F385E02D05
:1010B000CD010995B5E0DB9EC0011124E981FA81DB
:1010C000EB83FC83312C212C9C0120563F4F2F8B2E
:1010D000388F4A2D50E04D8B5E8BEF89F88DE20DF5
:1010E000F31D44918D829E82D12CC12C69817A811D
:1010F000620D731D698B7A8B842F90E08B8B9C8B98
:10110000E98DFA8DA081B18140FF7FC0F1E0BF126F
:101110006CC0AF126AC01C96ED91FC912F8138858E
:10112000A4014C0D5D1D69897A89898D9A8D099577
:10113000EB89FC89F595E7954E2F5FEFC51AD50A27
:101140006D817E818D899E89680F791F6D837E8375
:1011500098E0C916D10481F6AFEF2A1A3A0AEB815A
:10116000FC81E40DF51DEB83FC83F5E02F163104C3
:1011700009F0B3CF2F81388526153705B9F0A98D31
:10118000BA8DED91FC91B1E0BB1254C0AB1252C0CC
:1011900069817A816B5F7F4F0088F189E02D83013F
:1011A00028E030E0A401898D9A8D0995A98DBA8D2A
:1011B000ED91FC9111970688F789E02DCD016A9693
:1011C000CDBFDEBFDF91CF911F910F91FF90EF90C8
:1011D000DF90CF90BF90AF909F908F907F906F9057
:1011E0005F904F903F902F9009941E96ED91FC9147
:1011F000EF80F88409851A8592014D815E816B81AB
:101200007C81898D9A8D099593CF2F8138852615FC
:10121000370509F48DCF31E0B31207C0A31205C022
:101220001C96ED91FC9193017BCF1E96ED91FC9164
:101230007301E0CF6B857C85641975090684F78599
:10124000E02D73010F8518899201A401898D9A8D73
:101250000995ACCFF9013496949132974591549108
:10126000D91AB7E0DB9E400D511D1124F9012591DB
:1012700034912B8B3C8BFA0125903490FA013296F5
:10128000749031963491398B3296649031964490B3
:1012900041E04C1518F04A1508F07FC0662D062C69
:1012A000000C770B6B837C83842D042C000C990B32
:1012B0008D839E83A98DBA8DED91FC911197028447
:1012C000F385E02DCD010995512CD12CC12CEA2DAF
:1012D000F0E0E987FA872B2D30E02B873C87A401CB
:1012E000440D511D47FC5A954F8B588F69817A8167
:1012F000660D711D67FC7A956D877E877989C716A3
:1013000008F054CF2C2D30E04D815E81420F531FE9
:10131000A985BA854A9FC0014B9F900D5A9F900D99
:101320001124FC01E80DF91DEF87F88B852D612C48
:101330004F89588D420F531F4D8B5E8B671408F0F9
:1013400050C044244394480E877041F4C101019673
:10135000EB89FC89E20DF31DD4901C01D7FE19C066
:10136000A98DBA8DED91FC91662D70E0B1E0BB12B4
:1013700019C0AB1217C02D853E85620F731F048400
:10138000F585E02D2F8138854D895E89898D9A8D6F
:101390000995DD0C6394842DD1CF1D821E821B82A2
:1013A0001C8288CF4B815C81640F751FAB85BC8527
:1013B0006A9FC0016B9F900D7A9F900D11246981E7
:1013C0007A81680F791F0684F785E02DEF80F88415
:1013D00009851A859D014F855889898D9A8D0995B2
:1013E000D8CF570CC3948ACF6A96CDBFDEBFDF91AA
:1013F000CF911F910F91FF90EF90DF90CF90BF9012
:10140000AF909F908F907F906F905F904F903F90A4
:101410002F9008958F929F92AF92CF92EF92FF926A
:101420000F931F93CF93DF93EC01262F898D9A8D15
:10143000009709F051C06A30D1F41C861D868D8951
:1014400048E0849F900111248E859F85820F931F11
:101450008E879F8781E090E0DF91CF911F910F9160
:10146000FF90EF90CF90AF909F908F9008956D3048
:1014700089F3CC88AD888F898823C1F08C859D85C0
:1014800036E0C39E800D911D11244885598548176B
:10149000590764F44E855F851C861D8638E0A39E3F
:1014A000C0011124840F951F8E879F87EA88FB88CF
:1014B000088919894E855F856C857D85CE010E94DE
:1014C000EE072C898C859D8546E0249F800D911D1B
:1014D00011248C879D87BECF6A3069F41C861D86D7
:1014E000FC013896E4912D898E859F85E29F800DC1
:1014F000911D1124ADCF6D3009F4ACCFFC013496B1
:101500003491631708F4A6CF3296E491E61708F4F5
:10151000A1CFFC01329685909490462F431B342F27
:1015200047E0349F800C911C1124F40132963491D1
:101530003196E4913323A9F1EE2399F1CC88F4019B
:101540003596E491AD884F89442301F10E2E000CAD
:10155000FF0BE30FF11DCE9EA001CF9E500D112475
:101560006C857D85460F571F6885798564177507DB
:101570006CF44E855F851C861D86FC013896E491CF
:10158000AE9E400D511D11244E875F87EA88FB886F
:10159000088919894E855F856C857D85CE010E94FD
:1015A000EE07F4013496E4912C898C859D85E29FA9
:1015B000800D911D11248DCF6F927F928F929F92FB
:1015C000AF92BF92CF92DF92EF92FF920F931F9351
:1015D000CF93DF93EC016B015A0139014801E88197
:1015E000F9810284F385E02D0995E881F98102886B
:1015F000F389E02D87019301A501B601CE0109957C
:10160000A501480D591D41505109E881F981028811
:10161000F389E02D9301B601CE010995E881F981A6
:101620000088F189E02D9401A501B601CE0109954C
:10163000C60CD71CB60161507109E881F981008898
:10164000F189E02D9401A501CE010995E881F98188
:101650000688F789E02DCE01DF91CF911F910F9180
:10166000FF90EF90DF90CF90BF90AF909F908F90C2
:101670007F906F9009946F927F928F929F92AF921A
:10168000BF92CF92DF92EF92FF920F931F93CF936F
:10169000DF935C01EB016A01490138018701DC013C
:1016A000ED91FC916217730719F5641675062CF01D
:1016B000962D872D3A01C92ED82E96012619370965
:1016C0002F5F3F4F048CF58DE02DA301BE01C501B6
:1016D0000995DF91CF911F910F91FF90EF90DF90CF
:1016E000CF90BF90AF909F908F907F906F90089514
:1016F0004615570591F42617370724F0892D4B011D
:10170000C22FD82F9E01281939092F5F3F4F068C11
:10171000F78DE02DA601B401DACF0284F385E02D28
:101720000995D501ED91FC910488F589E02D83019F
:101730009401A601BE01C5010995D501ED91FC9169
:101740000688F789E02DC501DF91CF911F910F9198
:10175000FF90EF90DF90CF90BF90AF909F908F90D1
:101760007F906F900994EF92FF920F931F93DC018B
:101770001A960D911C911B9718962D913C911997D3
:10178000ED91FC9100A0F1A1E02D7B0150E040E043
:1017900070E060E009951F910F91FF90EF90089520
:1017A0004F925F926F927F928F929F92AF92BF9271
:1017B000CF92DF92EF92FF920F931F93CF93DF931D
:1017C0006C012B015A0139014801DC01ED91FC91BA
:1017D0000284F385E02D0995E201640C751CD601A5
:1017E000ED91FC91C615D7055CF40088F189E02DD8
:1017F00087019401A501BE01C60109952196EFCF8D
:101800000688F789E02DC601DF91CF911F910F91D6
:10181000FF90EF90DF90CF90BF90AF909F908F9010
:101820007F906F905F904F9009948F929F92AF92AC
:10183000BF92CF92DF92EF92FF920F931F93CF93BD
:10184000DF93EC015B014A016901E881F9810284BF
:10185000F385E02D099595012C0D3D1D2150310991
:10186000E881F9810488F589E02D78018401A401DB
:10187000B501CE010995E881F9810688F789E02D47
:10188000CE01DF91CF911F910F91FF90EF90DF90EC
:10189000CF90BF90AF909F908F9009948F929F921E
:1018A000AF92BF92CF92DF92EF92FF920F931F936E
:1018B000CF93DF93EC015B014A0169017801E88174
:1018C000F9810284F385E02D0995C80CD91C8601A5
:1018D00001501109E881F9810488F589E02D95010D
:1018E000A401B501CE010995E881F9810688F7893F
:1018F000E02DCE01DF91CF911F910F91FF90EF90DE
:10190000DF90CF90BF90AF909F908F9009940895F3
:10191000EF92FF920F931F93DC01ED91FC9100A0D9
:10192000F1A1E02D09951F910F91FF90EF9008957F
:101930000F931F93DC01ED91FC91068CF78DE02D48
:1019400009951F910F9108950F931F93DC01ED915D
:10195000FC91048CF58DE02D09951F910F91089550
:10196000DC01ED91FC910084F185E02D09942F922A
:101970003F924F925F926F927F928F929F92AF921F
:10198000BF92CF92DF92EF92FF920F931F93CF936C
:10199000DF93CDB7DEB72697CDBFDEBF3C016A012E
:1019A0002D833E83EB82FC825801A41AB50AB7FE50
:1019B00003C0B194A194B1088D809E80861A970AC5
:1019C00097FE03C09194819491088A149B045CF063
:1019D000902F812F0D811E819D838E839C2D8D2DB7
:1019E0006B01692F782F0C151D055CF09D818E8190
:1019F0006D837E83692F782F902F812F8601C92ECA
:101A0000D82E1601201A310A2B012D813E81421A4F
:101A1000530A57FE03C0519441945108710137FE97
:101A200003C03FEFE31AF30AF594E7948D819E819A
:101A3000861797075CF5A1E0B0E0A983BA83C016CA
:101A4000D1064CF1D301ED91FC910484F585E02D94
:101A50002B813C81A8016D817E818A149B041CF03E
:101A60004D815E81B801C3010995E418F508F7FEC0
:101A70000AC02D813E8189819A81280F391F2D83CB
:101A80003E83E20CF31C0F5F1F4FD9CF2FEF3FEFC8
:101A900029833A83D4CF2696CDBFDEBFDF91CF9185
:101AA0001F910F91FF90EF90DF90CF90BF90AF907C
:101AB0009F908F907F906F905F904F903F902F906E
:101AC000089508950F9391E090935C2910925B29FB
:101AD0006093592970935A29409358292093572984
:101AE000109256291092552900935429880F8093FB
:101AF000532923E030E044E050E0809158298823C6
:101B000041F02093512930935229809153298E7F9F
:101B10000BC080915729882351F04093512950934D
:101B200052298091532981608093A70808C0809131
:101B30005829811104C080915729882311F380917D
:101B40005B298823E1F380915B298330B1F2809196
:101B50005729882321F0809155290F91089580916C
:101B60005B29823031F0853031F0813031F480E012
:101B7000F4CF81E0F2CF83E0F0CF84E0EECFE0EA73
:101B8000F8E091859066918722E030E0209351291A
:101B9000309352298093432910924229089581E07D
:101BA000809342291092432993E09093AA08909140
:101BB000AB0891FF10C010924F29E0914029F0919D
:101BC0004129099580934E2985E090E08093512921
:101BD0009093522908951092502980934D2986E0C0
:101BE00090E0F4CF8F929F92AF92BF92CF92DF920C
:101BF000EF92FF92CF93DF9360342DE0720723E0E2
:101C00008207910508F454C0611525E372072CE0A2
:101C10008207910508F445C060387F4482419105F0
:101C200008F046C0C8E7D0E020E432E44FE050E0DE
:101C30008090002890900128A0900228B09003285E
:101C4000C501B4010E94852769017A018AE0C81A9A
:101C5000D108E108F108C501B40120E432E44FE005
:101C600050E00E948527DE010E94722728EE33E0B3
:101C700040E050E00E948527C21AD30AE40AF50A20
:101C8000F694E794D794C794C092A608DF91CF91B9
:101C9000FF90EF90DF90CF90BF90AF909F908F908C
:101CA0000895CCE2D1E020E83AE146E050E0C0CF30
:101CB000C8EED3E020EA36E841E050E0B9CF6093C7
:101CC0003E2970933F29089560933C2970933D29E4
:101CD0000895E0913E29F0913F29309741F010920C
:101CE0003B2910923A29099580913A29089580E07C
:101CF0000895E0913C29F0913D29309759F03091B9
:101D0000392920913829321728F0109239298093E7
:101D1000382909940895E091392980913829E817E4
:101D200030F4F0E0E854F74D808190E008958FEFB3
:101D30009FEF089590913929809138292FEF3FEF37
:101D4000981748F4E92FF0E0E854F74D208130E08F
:101D50009F5F90933929C901089580913829909106
:101D60003929891B990B0895CF92DF92EF92FF9248
:101D70000F931F93CF93DF937C018A01EB016B01DB
:101D8000C40ED51ECC15DD0551F06991D701ED913A
:101D9000FC910190F081E02DC7010995F3CFC801B6
:101DA000DF91CF911F910F91FF90EF90DF90CF9037
:101DB000089520913A2927FF08C021E030E0FC0176
:101DC0002283338390E080E0089580913B29E82FBF
:101DD000F0E0E85CF74D60838F5F80933B29809350
:101DE0003A2981E090E00895DC01ED91FC91008CAE
:101DF000F18DE02D61E009940F938091512990912C
:101E000052290197A1F480915C29811112C0062FFB
:101E100020E040913A2968E378E2809137280E94D7
:101E2000620D10923B2910923A290F91089580E09B
:101E3000F8CF81E0F6CF6093372810923B291092BB
:101E40003A290895DC01ED91FC91048CF58DE02D8B
:101E500021E009940F9388EB98E2809344299093B2
:101E6000452980915129909152290197C9F4809177
:101E70005C29811117C0FA014138510510F0E0E8E2
:101E8000F0E0022F862F2E2F40E070E060E00E94ED
:101E9000620D109239298093382990E00F910895AE
:101EA00080E0F7CF81E0F5CFCB01BA010C94F20DC1
:101EB000E0EAF8E01382168281E0858314861186B9
:101EC0001092512910925229089510923929109296
:101ED000382910923B2910923A29809151299091EA
:101EE0005229892BD9F482E090E080935129909374
:101EF00052291092502910924F2910924229109283
:101F000043291092362810924D29660F6093AC0831
:101F100081EE8093A90881E08093A30889E69EE082
:101F2000809340299093412988E398E28093462941
:101F30009093472989E79EE080934B2990934C2901
:101F400088EB98E2809348299093492980E8809310
:101F50004A290895109239291092382910923B2964
:101F600010923A298091512990915229892B41F55B
:101F700062E070E086E10E94380462E070E087E190
:101F80000E9438048091E3058093E30581E090E0AE
:101F900080935129909352291092552910925629D5
:101FA00010925C2910925B2981EC8093A30860EA6F
:101FB00076E881E090E00E94F20D81E08093A50830
:101FC000089590E080E00895E4E2F8E2DF012D91C9
:101FD0003D912115310571F014968D919C911597C5
:101FE0002817390739F41A968D919C911B978217FF
:101FF0009307E1F188E2AA32B80749F746E358E2CD
:1020000080819181009751F022813381281739070F
:1020100029F4848195818217930741F136964E17F2
:102020005F0771F780912C2890912D280097E9F097
:1020300020912428309125288217930739F4209184
:102040003428309135288217930781F02091282871
:10205000309129288217930741F42091302830913C
:1020600031288217930709F4089580E00895DC0170
:102070008C918F5F893019F18C932C91233030F043
:10208000E1E0263020F0E2E0293008F0E0E04E2FD9
:1020900050E08E2F880F880FE81BE20FCA01880FCF
:1020A000991F840F951FE80FF92FF11DEE0FFF1FE9
:1020B000EC5DF74D80819181892BD1F608951C92BA
:1020C000DCCFCF93DF93FC01633040F06630A0F1AA
:1020D00086E0693020F0DF91CF91089580E0282FCD
:1020E00030E096E0861741F070E0621B730B90E0E1
:1020F0006130710509F493E0B90183E0660F771F41
:102100008A95E1F7DF01A60FB71F292F30E0ED0117
:10211000C20FD31F4883685F7F4FE60FF71FEF01A1
:10212000C20FD31F48832F5F3F4FA20FB31F4C93A3
:10213000E20FF31F4083CFCF83E0D1CFDC01ED91DD
:10214000FC910088F189E02D23E030E009946034AF
:102150007105CCF02FE730E0261B370BF90137FD76
:102160003796BF0153E0759567955A95E1F7E87F7B
:10217000F770E80FF91F660F660F660F261BE20F58
:10218000F11D10820895DB0177FD17969D0143E054
:10219000359527954A95E1F7A87FB770FC01EA0FBE
:1021A000FB1F220F220F220F621BE60FF11D82E0A0
:1021B00080830895FC019C01205C3F4F672B69F4EC
:1021C00040834183428343834483458346834783DB
:1021D00038962E173F07A1F7089583E0413049F460
:1021E00084838583868387833896E217F307C1F754
:1021F0000895808381838283838338962E173F07D7
:10220000C1F708959C01DB0147E09C91911112C038
:102210004C938C91F901E80FF11D87FDFA9590819F
:102220009111F3CF87E090E020AD211106C0119607
:102230008C93089591509C93ECCF019738978F3FE2
:10224000980791F70895CF92DF92EF92FF92CF9384
:10225000DF93EC016A017B010E947D05688379832D
:102260008A839B83CC82DD82EE82FF8281E0888735
:10227000DF91CF91FF90EF90DF90CF900895CF93B3
:10228000DF93EC010E947D05688379838A839B83B9
:1022900081E08887DF91CF910895CF92DF92EF920E
:1022A000FF920F931F93CF93DF93FC0110851111C1
:1022B0000BC010E0812FDF91CF911F910F91FF9004
:1022C000EF90DF90CF900895EC010E947D05C880CB
:1022D000D980EA80FB806C197D098E099F09CC802A
:1022E000DD80EE80FF806C157D058E059F0508F36F
:1022F000188609850023F1F2CE010E943F11102FAC
:10230000D9CFCF93DF93EC0119860E947D056883B6
:1023100079838A839B831C821D821E821F8218867A
:102320001986DF91CF910895FC011382108270E02D
:1023300060E081810C94C204CF93DF93EC0181E0D3
:102340008B838883AB01770F660B770BCE010496E6
:102350000E942311688170E08981DF91CF910C94F4
:10236000C204FC01138281E0808361E070E081811E
:102370000C94C204CF93DF93CFEAD9E2899199916B
:102380000E94941189E2C73BD807C1F7DF91CF9132
:102390000895CF93DF93EB010E949D042881892B40
:1023A00089F4243040F4223058F486E0222331F0BE
:1023B000DF91CF91089583E02630D1F78883F8CF5D
:1023C00082E0FCCF223039F020F0293089F781E01B
:1023D000F5CF1882EDCF89E0F1CFFB01019000200D
:1023E000E9F73197AF01461B570BDC01ED91FC91EA
:1023F0000280F381E02D09948F929F92AF92BF9259
:102400000F931F93CF93DF93CDB7DEB7A197CDBFC7
:10241000DEBF19A2423008F44AE08E010F5D1F4F63
:10242000842E912CB12CA12CA50194010E9485270A
:10243000E62FB901CA01EA30ECF4E05DD801EE9371
:102440008D01232B242B252B79F790E080E010972A
:1024500029F0BD0182E39AE20E94ED11A196CDBF61
:10246000DEBFDF91CF911F910F91BF90AF909F90F2
:102470008F900895E95CE2CF66E574E90C94ED1164
:10248000CF93DF934AE00E94FC11EC0182E39AE2D1
:102490000E943C128C0F9D1FDF91CF910895CF9326
:1024A000DF93BC0182E39AE20E94ED11EC0182E32A
:1024B0009AE20E943C128C0F9D1FDF91CF910895EC
:1024C0008F929F92AF92BF92CF92DF92FF920F9323
:1024D0001F93CF93DF938C011092212A1092222A0E
:1024E0001092232A1092242A1092252A1092262A2A
:1024F0001092272A1092282A1092292A10922A2A0A
:1025000010922B2A10922C2A10922D2A10922E2AE9
:1025100010922F2A1092302A60E086E09AE20E9400
:10252000D907E801580110E000E04501D12CC12C89
:10253000D4012D914D0130E0A601B80186E09AE268
:102540000E943307BFEFCB1ADB0AE8E0CE16D104B6
:1025500079F70F5F1F4FF8E0AF0EB11C083011057F
:1025600021F7D090CF2ADD2009F461C010E300E00C
:10257000011188C08091CD2A9091CE2ADC01ED9185
:10258000FC910190F081E02D63E509958091CD2AC1
:102590009091CE2ADC01ED91FC910190F081E02D2B
:1025A0006DE409958091CD2A9091CE2ADC01ED91C0
:1025B000FC910190F081E02D68E309958091CD2A8E
:1025C0009091CE2ADC01ED91FC910190F081E02DFB
:1025D000612F09950D2D5E01B8E0AB0EB11C8991FC
:1025E000813009F457C008F452C0823009F44CC05D
:1025F000833011F437E4F32E8091CD2A9091CE2AC6
:10260000DC01ED91FC910190F081E02D6F2D099599
:10261000AC16BD0621F7011106C08091CD2A90911C
:10262000CE2A0E943C121F5F183309F0A1CF60919F
:10263000312A82EC99E20E941B0F60E082EC99E261
:102640000E94D90EC6E0DAE26B8D82EC99E20E941C
:10265000D90E6C8D82EC99E20E94D90E2296BAE2D4
:10266000C631DB0789F782EC99E2DF91CF911F91A8
:102670000F91FF90DF90CF90BF90AF909F908F9081
:102680000C94F40E00E0A7CF2FE4F22EB5CF96E520
:10269000F92EB2CF82E5F82EAFCFAF92BF92CF9294
:1026A000DF92EF92FF920F931F93CF93DF9300D0AF
:1026B00000D0CDB7DEB78FEAC82E89E2D82ECE0182
:1026C00001967C015C01D6010D911D916D01F8010F
:1026D0008381882389F0C80104960E944D118823C4
:1026E00059F0D80113961C9213971C9270E060E089
:1026F00011968C910E94C204F8018081D5018D93BE
:102700005D01B7EBCB16B9E2DB06E9F68091CF2A83
:10271000882309F44EC08091CD2A9091CE2ADC0105
:10272000ED91FC910190F081E02D63E50995809198
:10273000CD2A9091CE2ADC01ED91FC910190F0819F
:10274000E02D6CE409958091CD2A9091CE2ADC0190
:10275000ED91FC910190F081E02D68E309958701EE
:102760000C5F1F4F8091CD2A9091CE2ADC01ED9114
:10277000FC910190F081E02DD7012D917D016CE459
:10278000211168E40995E016F10661F78091CD2AE0
:102790009091CE2A2496CDBFDEBFDF91CF911F91BD
:1027A0000F91FF90EF90DF90CF90BF90AF900C947F
:1027B0003C122496CDBFDEBFDF91CF911F910F91C8
:1027C000FF90EF90DF90CF90BF90AF900895EF9281
:1027D000FF920F931F93CF93DF93CDB7DEB72C9764
:1027E000CDBFDEBF80911C28811107C082E198E235
:1027F0000E94811181E080931C2881E080931B2836
:1028000088E0E8E5F2E9DE01119601900D928A95E3
:10281000E1F780911A28811108C04AE050E060E099
:1028200070E082E198E20E94231182E198E20E9426
:102830004D11882309F484C061E178E28DE090E0D5
:102840000E94C91160E178E28FE090E00E94C91116
:102850006FE078E284E090E00E94C9116EE078E2D7
:1028600085E090E00E94C911AE014F5F5F4F8E017D
:10287000075F1F4FD80181E0FA0121913191AF012B
:10288000F9019081911168C01C921196401751076F
:1028900099F78091CF2A882309F442C08091CD2AEC
:1028A0009091CE2ADC01ED91FC910190F081E02D18
:1028B00063E509958091CD2A9091CE2ADC01ED91B6
:1028C000FC910190F081E02D62E409958091CD2A80
:1028D0009091CE2ADC01ED91FC910190F081E02DE8
:1028E00068E309957801B4E0EB0EF11C8091CD2AE4
:1028F0009091CE2ADC01ED91FC910190F081E02DC8
:10290000D8012D918D016CE4211168E409950E1513
:102910001F0561F78091CD2A9091CE2A0E943C122A
:10292000809111288330D1F0809110288330C9F034
:1029300080910F288330C1F080910E288330B9F048
:1029400090E080E02C96CDBFDEBFDF91CF911F914C
:102950000F91FF90EF9008958C9397CF81E090E0D6
:10296000F1CF82E090E0EECF83E090E0EBCF84E027
:1029700090E0E8CF2F923F924F925F926F927F92BA
:102980008F929F92AF92BF92CF92DF92EF92FF927F
:102990000F931F93CF93DF93CDB7DEB7C855D109FF
:1029A000CDBFDEBF84E064968FAF649787E0659605
:1029B0008FAF6597EBE4F0E0EC0FFD1F329686E0F9
:1029C000DF011D928A95E9F78FEF2C968FAF2C9738
:1029D0002D968FAF2D97FE0131964F0180E4DF01D8
:1029E0001D928A95E9F73E01B1E46B0E711CC3019B
:1029F0000E94811144EF51E060E070E0C3010E9449
:102A0000231181E0F30181876596EFAD659728E09A
:102A1000E202F0011124E80DF91D64969FAD649760
:102A2000E90FF11D97FDFA9580830FEF66961FAEB3
:102A30006697BB24B39467961FAE679787E0E82E2E
:102A4000F12C9BE4492E512C4C0E5D1E88E0480E63
:102A5000511C1FEF0E94E7136C0193E0E916F1048B
:102A600009F4F6C2A7E0EA16F10409F044C3B2E0A3
:102A7000CB16D10431F56696EFAD6697EE2351F192
:102A8000C3010E944D118823B1F06596EFAD6597A3
:102A900028E0E202F0011124E80DF91D64968FADE3
:102AA0006497E80FF11D87FDFA95BB2009F4C6C2B3
:102AB000108281E0B8260E944D13C4010E9460126A
:102AC000C9CFF4E0CF16D104B9F566962FAD66975D
:102AD0002130B1F66596EFAD659788E0E802F00128
:102AE0001124E80DF91D64968FAD6497E80FF11D70
:102AF00087FDFA951082C3010E943F11BE016D5AF5
:102B00007F4FC4010E94021166969FAD669781E0D7
:102B1000911183E06596EFAD6597A8E0EA02F001B8
:102B20001124E80DF91D64969FAD6497E90FF11D1E
:102B300097FDFA958083B12CB1E0CB16D10451F406
:102B40006696EFAD6697EE2309F476C097E0E92E1E
:102B5000F12C96CFF3E0CF16D104C1F766962FADD6
:102B6000669783E0213091F76596AFAC65979A2D13
:102B7000A8E09A02F0011124E80DF91D64969FADBA
:102B80006497E90FF11D97FDFA9580836796BFADB5
:102B90006797BF5F6796BFAF6797D401740147E03F
:102BA00050E0F70160AD70E091E080E061157105E3
:102BB00009F490E0292F382F6701F9E3CF0ED11CDB
:102BC00081E090E0F60101916F01002309F4BCC09F
:102BD000E02FF0E06115710509F4B9C0E617F707B9
:102BE00069F537FDB5C02F5F3F4F2430310579F5CA
:102BF0002C968FAF2C972D964FAF2D979FEF980F58
:102C00002E969FAF2E972F964FAF2F979EEF980F30
:102C100060969FAF609761964FAF619783506296C1
:102C20008FAF629763964FAF639701E06130710594
:102C300009F086C000E084C081E096CF37FF8BC0EA
:102C4000215031092C3FFFEF3F0709F457C001968F
:102C50008830910509F0B6CF4150510928E0E21AB9
:102C6000F1084F3F540709F09CCF70E060E0D89620
:102C70004C91D89750E031E020E04115510509F41E
:102C800030E0832F922F7D0126E030E0F70100A98C
:102C9000002309F478C1E02FF0E04115510509F453
:102CA00075C1E417F50709F059C097FD70C1019689
:102CB0008430910509F05AC02C966FAF2C972D9651
:102CC0002FAF2D972E966FAF2E9781E0820F2F9604
:102CD0008FAF2F9760966FAF609782E0820F6196FB
:102CE0008FAF619762966FAF62972D5F63962FAF3C
:102CF000639701E04130510519F59CCF2C968FAFB9
:102D00002C972D964FAF2D979FEF980F2E969FAF34
:102D10002E972F964FAF2F979EEF980F60969FAFED
:102D2000609761964FAF6197835062968FAF6297BD
:102D300063964FAF639701E06130710509F07ACF78
:102D400083E0E82EF12C9CCE30E020E080CFBF0164
:102D500021E030E07CCF2FEF3FEF79CF97FF1AC112
:102D600001978C3FFFEF9F0709F407C121503109FC
:102D7000E8E0EE1AF1082F3F320709F087CF6F5FC6
:102D80007F4F11966830710509F071CF1E0129E15E
:102D9000220E311C23E030E069962EAE3FAE6997DB
:102DA00090E080E06996AEADBFAD6997FD90699601
:102DB000AEAFBFAF6997CF2CD12CC114D10409F4A9
:102DC00017C12C968FAF2C972D962FAF2D9761E0C2
:102DD00070E041E050E0DC01A41BB50BB7FD25C05D
:102DE000F901E40FF51F03E0EE0FFF1F0A95E1F76D
:102DF000E80DF91DEA0FFB1FE081FE12EDC0FB019B
:102E0000EE0FFF1FABE4B0E0AC0FBD1FEA0FFB1FDE
:102E1000A82FA41BA083A42FA20FA1836F5F7F4FB5
:102E20004F5F5F4F44305105B4F241E050E0DA01AA
:102E3000A80FB91FA930B1052CF5F901E41BF50B5A
:102E400003E0EE0FFF1F0A95E1F7E80DF91DEA0F09
:102E5000FB1FE081FE12C3C0FB01EE0FFF1FABE4BE
:102E6000B0E0AC0FBD1FEA0FFB1FA82FA41BA0836F
:102E7000A42FA20FA1836F5F7F4F4F5F5F4F44303E
:102E80005105ACF2643071050CF071C02E961FAF85
:102E90002E972F961FAF2F9760961FAF6097619662
:102EA0001FAF619762961FAF629763961FAF6397DC
:102EB00061E070E041E050E0DA01A80FB91FA930ED
:102EC000B1052CF5F901E40FF51F03E0EE0FFF1F2C
:102ED0000A95E1F7E80DF91DEA0FFB1FE081FE12EC
:102EE00081C0FB01EE0FFF1FABE4B0E0AC0FBD1FD4
:102EF000EA0FFB1FA42FA80FA083A42FA20FA1836A
:102F00006F5F7F4F4F5F5F4F44305105ACF241E040
:102F100050E0DC01A41BB50BB7FD25C0F901E41B93
:102F2000F50B03E0EE0FFF1F0A95E1F7E80DF91D21
:102F3000EA0FFB1FE081FE1258C0FB01EE0FFF1FDE
:102F4000ABE4B0E0AC0FBD1FEA0FFB1FA82FA41B22
:102F5000A083A22FA41BA1836F5F7F4F4F5F5F4FA2
:102F600044305105B4F2643071050CF441C001E005
:102F7000CA94CD2809F0E4CE5DCE01E04130510580
:102F800009F058CEDDCE90E080E0F0CEAF0181E0D8
:102F900090E0ECCE8FEF9FEFE9CE2C961FAF2C97F1
:102FA0002D961FAF2D972E961FAF2E972F961FAFE2
:102FB0002F9760961FAF609761961FAF61976296DB
:102FC0001FAF629763961FAF639767968FAD679742
:102FD0008034E1F40FEFB4CE44E050E021CF44E080
:102FE00050E04BCF44E050E08DCF44E050E0B6CF0E
:102FF00001968830910509F0D5CEE8E02E0E311CFF
:103000002430310551F224E030E0C6CEAA2079F018
:10301000AA946596AFAE659781E06696FFAD669718
:10302000F11180E066968FAF66970FEF8FCDBE01EE
:103030006D5A7F4FC4010E940211EECF66968FAD8C
:103040006697811103C081E0808333CD83E0FCCF9C
:103050002A968FAD2A97811108C044EF51E060E0B5
:1030600070E0C3010E942311B12CC3010E944D11D5
:10307000882321F00F3F61F481E0B82684E0C81670
:10308000D104C9F1CD2809F416CD82E090E035C015
:10309000BB20B9F0DE01A55BBF4F1196EC911197F3
:1030A00098E0E902F0011124E80DF91D8C91E80F78
:1030B000F11D87FDFA95108212964A165B0669F794
:1030C000DBCF81E0011183E0DE01A55BBF4F1196EC
:1030D000EC91119728E0E202F0011124E80DF91DAE
:1030E0009C91E90FF11D97FDFA95808312964A167F
:1030F0005B0669F7C1CF81E090E0C85ADF4FCDBFD2
:10310000DEBFDF91CF911F910F91FF90EF90DF9085
:10311000CF90BF90AF909F908F907F906F905F9077
:103120004F903F902F9008950E941E290C9495284F
:10313000CF92DF92EF92FF920F93FC01C12CB9E086
:10314000DB2EBDE3EB2EF12CC082D182E282F38232
:103150001482158281E090E086839783C0900028D6
:10316000D0900128E0900228F0900328F694E7948C
:10317000D794C79490E04C155D056E057F0540F42B
:10318000F694E794D794C7949F5F9630A1F797E0A1
:1031900004600187892F8095A82FA170B0E084E09A
:1031A000AA0FBB1F8A95E1F791629A2B80E0232B2F
:1031B00009F480E4982B90870F91FF90EF90DF90B7
:1031C000CF9008950F931F93CF93DF93CDB7DEB7C2
:1031D0002A97CDBFDEBF8C01FC01878181110CC015
:1031E0001086118612861386148615861686178613
:1031F000108A118A81E087838091E305F801968126
:10320000892B8093E30561E070E083810E946E0466
:1032100061E070E0F80184810E946E048091C10831
:1032200084608093C1088091C00881628093C00847
:103230004091BA295091BB296091BC297091BD2958
:103240000091BE292091C0293091C129CE0101965B
:103250000E94981899858A859093C0088093C10828
:103260002A96CDBFDEBFDF91CF911F910F910895B8
:103270005F926F927F928F929F92AF92BF92CF9206
:10328000DF92EF92FF920F931F93CF93DF93CDB70F
:10329000DEB76297CDBFDEBF3C010B871C872D8751
:1032A0003E87042F4F87588B698B7A8B29893A89FF
:1032B0004B855C856D857E85CE0101960E949818B0
:1032C00059841A85D30118968C91882319F081FFAF
:1032D00018C0F8945092C0081093C1086296CDBFF0
:1032E000DEBFDF91CF911F910F91FF90EF90DF90A4
:1032F000CF90BF90AF909F908F907F906F905F9096
:10330000089580FFE7CFF30182849384A484B58479
:10331000C12CD12C7601B0E09401A501B601C70102
:10332000A0E00E94E727A9F1217030E040E050E0E2
:1033300060E070E080E090E00E94E727E9F090E034
:1033400080E0B03370F48B2F869586958695F0E2F9
:103350008F9FC0011124805F9B4F2B2F2770820FFE
:10336000911DFC01408193012B0F311DF901428B0E
:10337000FC012081287F20839401A501B601C701AB
:1033800001E00E94CC2749015A016B017C01BF5F1B
:10339000C3CFD3011E968D909D90AD90BC90519758
:1033A000C12CD12C7601B0E29401A501B601C70170
:1033B000A0E00E94E72709F48DCF217030E040E0C3
:1033C00050E060E070E080E090E00E94E727E9F0E4
:1033D00090E080E0B03370F48B2F869586958695CB
:1033E000E0E28E9FC0011124805F9B4F2B2F27703E
:1033F000820F911DFC01408193012B0F311DF901BA
:10340000428BFC012081287F20839401A501B60115
:10341000C70101E00E94CC2749015A016B017C01E0
:10342000BF5FC2CF2F923F924F925F926F927F9277
:103430008F929F92AF92BF92CF92DF92EF92FF92C4
:103440000F931F93CF93DF93CDB7DEB7C855D10944
:10345000CDBFDEBF2F961FAE2F979E012F5F3F4F30
:10346000690180E4F90111928A95E9F78E01055B03
:103470001F4FF8011082118212828FEF80835E014C
:10348000F1E4AF0EB11CC5010E94811181E0F5018C
:10349000818744EF51E060E070E0C5010E94231194
:1034A00043E02F966FAD2F97C6010E946110412C0B
:1034B000F12CE12C63961EAE1FAE639755245394F6
:1034C000B4E02B2E312C6496AFAE64976596BFAEF8
:1034D000659736010E94E7136C01F4E02F16310462
:1034E00009F475C027E02216310409F4A5C033E0C1
:1034F0002316310409F004C2442009F4E6C1F8019E
:1035000080818F3F09F0B5C10E94E40F20913028DF
:103510003091312869962EAF3FAF699780902C2863
:1035200090902D28409134285091352867964EAFC1
:103530005FAF6797A4E2B8E270E060E0A82EB12C1C
:103540006196AEAFBFAF619790E080E06196EEAD5F
:10355000FFAD6197219131916196EEAFFFAF619719
:103560002A153B0509F078C1009709F031C1129680
:103570004D915C911397A416B50609F029C11496D4
:103580004D915C911597A416B50609F021C1CB01A8
:10359000880F991F680F791FF8016083CB0101968E
:1035A00081836E5F7F4F628331E0431609F49CC1D3
:1035B00042E0441609F4A1C154E0C516D10409F44F
:1035C0009FC1CD2809F459C082E090E09BC1E4E29C
:1035D000F8E222E111922A95E9F743E050E06FEF1B
:1035E0007FEFC8010E942329AE014F5F5F4F90E03B
:1035F00080E0FA0130E020E08230910549F022308D
:10360000310531F08530910519F02530310591F4FF
:1036100062E060832F5F3F4F31962830310561F7BC
:103620000196485F5F4F8830910519F787E0282E93
:10363000312C23C01082EECF64968FAD64976596CF
:103640009FAD65970E944D11882381F02F966FAD35
:103650002F9740E0511005C041E0E114F10409F05A
:1036600043E0C3010E94611081E0582682E0C81641
:10367000D10449F4E114F10471F00E944D13C30127
:103680000E94601227CF94E0C916D10429F5E1E029
:10369000EE16F10491F740E02F966FAD2F97C3011E
:1036A0000E94611064968FAD649765969FAD659793
:1036B0000E943F11CE01825B9F4F0E94371041E074
:1036C000E114F10409F043E02F966FAD2F97C30189
:1036D0000E94611055245394F1E0CF16D10409F0F3
:1036E00052C0E114F10449F621E02E0D2F96DFAC13
:1036F0002F9749E0D41609F451C052E05D1508F047
:103700004FC065E09D2DE1E06D1528F488E0E2E012
:103710008D1508F4E0E04E2F50E03E2F330F330FAD
:10372000E31BE90FCA01880F991F840F951FE80F4B
:10373000F92FF11DEE0FFF1FEC5DF74D30E02083F8
:1037400031836396EEADFFAD639731966396EEAF2E
:10375000FFAF63970E94E40F482E811107C0639664
:103760002EAD3FAD639729303105E1F441E0E1141E
:10377000F10409F043E06D2DC3010E94611063E084
:10378000262E312C7ACF23E0C216D10409F075CF52
:1037900031E0E316F10409F070CFA6CF90E0BACF84
:1037A0009D2DB8CF41E0E114F10409F043E06D2D07
:1037B000C3010E946110CE01825B9F4F0E943710AF
:1037C00091E080E0EF2809F090E0E92EF82E55CF47
:1037D00061157105C1F4FC01EE0FFF1FEC5DF74DA3
:1037E000468157812417350771F444855585241780
:1037F000350749F4F80180839C012D5F3F4F2183F9
:1038000006968283D1CE8130910531F1009781F403
:1038100067964EAD5FAD679724173507E9F4281515
:103820003905D1F4F801108284E0818388E0E9CF82
:103830008230910589F469964EAD5FAD6997241782
:10384000350751F42815390539F422E0F8012083B1
:1038500084E0818386E0D5CF01968330910509F01D
:1038600075CE6F5F7F4F16966330710509F068CE95
:103870009BCE64968FAD649765969FAD65970E94C9
:103880004D11882309F490CE5801480133E0830E8E
:10389000911CF50121915F0160962FAF609740E088
:1038A000622F511009C00E94E40F813009F083E0BB
:1038B000482F60966FAD6097C3010E946110A814F5
:1038C000B90439F781E058266FCE88EF99E20E945B
:1038D000B1118CED99E20E94B1118AEE99E20E9439
:1038E000B1118EEC99E206C088EF99E20E94B11105
:1038F0008AEE99E20E94B1115FCE8CED99E2EFCF92
:1039000081E090E0C85ADF4FCDBFDEBFDF91CF919D
:103910001F910F91FF90EF90DF90CF90BF90AF90ED
:103920009F908F907F906F905F904F903F902F90DF
:1039300008952F923F924F925F926F927F928F9253
:103940009F92AF92BF92CF92DF92EF92FF920F932E
:103950001F93CF93DF93CDB7DEB7C15BD109CDBF46
:10396000DEBF88E0E0E6F2E9DE01AB56BF4F019032
:103970000D928A95E1F788E0E8E6F2E9DE01A356C8
:10398000BF4F01900D928A95E1F788E0E0E7F2E9F8
:10399000DE01AB55BF4F01900D928A95E1F73E01D4
:1039A00021E8620E711CC3010E948111CE0185576E
:1039B0009F4F0E9481114E0131E4830E911C80E4DF
:1039C000F40111928A95E9F7B12CC355DF4F1882A3
:1039D000CD5AD040512C412C10E000E064E0262E5E
:1039E000312CC255DF4F18821982CE5AD04073E075
:1039F000A72E0E94E7137C01F4E02F16310409F48E
:103A00004AC0F0F433E02316310409F4E2C181E046
:103A100090E0CF54DF4FCDBFDEBFDF91CF911F913C
:103A20000F91FF90EF90DF90CF90BF90AF909F905D
:103A30008F907F906F905F904F903F902F90089560
:103A400085E02816310409F413C196E029163104E3
:103A5000F1F6C20101968017910709F090C0EB2D95
:103A6000F0E0EE0FFF1F25EA30E02C0F3D1FE20FC4
:103A7000F31F4081518170E060E0CE0185579F4F78
:103A80000E94231189E594E90E944F1210E000E0A2
:103A900095E0C92ED3C140E450E06FEF7FEFCE0137
:103AA00001960E942329EFEAF9E2C255DF4FE8832D
:103AB000F983CE5AD040D12CC12C2B2D30E0C055EB
:103AC000DF4F28833983C05BD040C255DF4FE88188
:103AD000F981CE5AD04081919191C255DF4FE88350
:103AE000F983CE5AD040C055DF4F28813981C05B61
:103AF000D0402C153D05BCF10E94B1113FEFC31A17
:103B0000D30A84E0C816D10401F7C7018D7F44E0D1
:103B1000C42E019789F40E94FB2624E030E040E0A7
:103B200050E00E94532769830E94BA11512C412C06
:103B300010E000E056E0C52ED12C92E0E916F10429
:103B4000A9F4E3E0BE1609F4B8C1B394C4010E941D
:103B500060120E944D13C255DF4F28823982CE5A1F
:103B6000D040160146CF0E949411C8CFF4E0EF1662
:103B7000F10461F7BB2009F4A2C1BA94E7CFC301F5
:103B80000E944D11811104C0F30180858111B9C0DB
:103B9000C355DF4FF881CD5AD040F1112AC0EB2D2B
:103BA000F0E0EE0FFF1F25E930E02C0F3D1FE20F84
:103BB000F31F4081518170E060E0C3010E94231136
:103BC000E1E0F0E0EC0FFD1FE00FF11FE081EE0FF0
:103BD000FF0BE155F64D808191810E94B11126E0E5
:103BE000C22ED12C31E0C355DF4F3883CD5AD0409F
:103BF000ADCFC355DF4F8881CD5AD040813029F5F4
:103C0000E1E0F0E0EC0FFD1FE00FF11FE081EE0FAF
:103C1000FF0BE155F64D808191810E949411EB2DAF
:103C2000F0E0EE0FFF1F2DE930E02C0F3D1FE20FFB
:103C3000F31F4081518170E060E0C3010E942311B5
:103C400086E0C82ED12C32E0CECFC355DF4F88811D
:103C5000CD5AD040823009F054C00F5F1F4FA6E00C
:103C6000CA2ED12CC355DF4F1882CD5AD0406ECF0B
:103C7000C20101968017910709F046C08091EA2998
:103C8000811106CFC355DF4F9881CD5AD040911195
:103C900011C048EC50E060E070E0C3010E942311C5
:103CA000F5E0CF2ED12CE1E0C355DF4FE883CD5AAC
:103CB000D0404CCFC3010E944D11882309F4E8CEB7
:103CC0008AEE99E20E949411B201C4010E94A710E9
:103CD0000E94FB26EE24E394F12CEC0EFD1EE00E78
:103CE000F11E24E030E040E050E00E945327F7014D
:103CF00060832801C355DF4F1882CD5AD04010E0B1
:103D000000E026E0C22E9AC0CE0185579F4F0E9448
:103D10004D1155E0C52E882341F06AEF70E088EF21
:103D200099E20E949C1163E0C62ED12CE114F104AB
:103D300009F40CCFCE0185579F4F0E943F11F2E04E
:103D4000EF16F10451F1B0F4EA94EF2809F0FECE39
:103D5000E1E0F0E0EC0FFD1FE00FF11F8081811129
:103D600025C068EC70E08AEE99E20E949C110F5F1A
:103D70001F4FECCE83E0E816F10409F194E0E91658
:103D8000F10409F0E3CEE1E0F0E0EC0FFD1FE00FFD
:103D9000F11F8081833051F4E4CFE1E0F0E0EC0FDB
:103DA000FD1FE00FF11F80818130D9F268EE73E0D2
:103DB00088EF99E20E949C1143E0C42E3FC0E1E0ED
:103DC000F0E0EC0FFD1FE00FF11F8081823071F7F2
:103DD000C8CFC255DF4FE881F981CE5AD040339722
:103DE00039F040E050E0BA01C3010E942311820182
:103DF000E1E0F0E0EC0FFD1FE00FF11FE081EE0FBE
:103E0000FF0BE155F64D0190F081E02D808181118D
:103E10000BC0F3018085811113C048EC50E060E0D5
:103E200070E0C3010E94231134E0E316F10409F4A9
:103E3000EECD84E0C82EEF2809F4BECFD12C86CE7B
:103E4000C3010E944D11882379F30F5F1F4FC201F8
:103E500001968017910791F40034110529F5F401BA
:103E6000A082A182A282A382A482A582A682A78226
:103E70003896E615F705A1F710E000E0E1E0F0E084
:103E8000EC0FFD1FE00FF11FE081EE0FFF0BE1557E
:103E9000F64D64EF71E0808191810E949C11B80120
:103EA000C4010E94A710C0CF003411052CF7F40103
:103EB00020E411922A95E9F7DFCFB12C47CE33E009
:103EC000B32E44CE2F923F924F925F926F927F9289
:103ED0008F929F92AF92BF92CF92DF92EF92FF921A
:103EE0000F931F93CF93DF93CDB7DEB7C455D1099E
:103EF000CDBFDEBFCE018F5B9F4F0E948111FE01BF
:103F0000319680E4DF011D928A95E9F7C12CD12C0E
:103F10007601812C912C540161961EAE1FAE6197E3
:103F20002F961EAE1FAE2F9765961CAE1DAE1EAE11
:103F30001FAE6597412C512C320110E000E02D9608
:103F4000EEAFFFAF2D970E94E7131C01043011055F
:103F500009F4ABC000F501151105C9F103301105D5
:103F600009F46FC181E090E0CC5ADF4FCDBFDEBFD6
:103F7000DF91CF911F910F91FF90EF90DF90CF9045
:103F8000BF90AF909F908F907F906F905F904F9079
:103F90003F902F9008950530110509F4A2C0083014
:103FA000110501F787E00E949D04892B51F466E911
:103FB00070E08AEE99E20E949C1187E694E90E94E3
:103FC0004F12B4E02B16310409F058C026C08AEE17
:103FD00099E20E94B11188EF99E20E94B1116196B5
:103FE000EEADFFAD61973197D9F08AEE99E20E946C
:103FF000B11188EF99E20E94B1118CED99E20E9413
:1040000094118EEC99E20E949411F2E02F16310483
:10401000E1F178F42A942328B1F010E000E02EC0FA
:104020008CED99E20E94B1118EEC99E20E94B111DF
:10403000ECCF43E02416310499F154E02516310405
:1040400009F490CFEACF81E694E90E944F120E94D2
:10405000FB2624E931E140E050E00E945327AB0108
:10406000BC014C505E4F6F4F7F4FCE018F5B9F4F17
:104070000E9423110E94BA1104E010E00E944D1327
:10408000CE0101960E9460125ECF61968EAD9FAD0B
:104090006197A1E08A2761968EAF9FAF6197BDCFF0
:1040A0000E94BA1108E010E0E9CFCE018F5B9F4F6C
:1040B0000E944D11882311F30FEA19E268EC70E0B9
:1040C000F801819191918F010E949C11F9E2073BC7
:1040D0001F07A1F70E947D052B013C0105E010E0C0
:1040E000CDCF61962EAD3FAD61972130310569F19D
:1040F00087E00E949D04892B09F023C10E947D0561
:104100009B01AC01241935094609570965962CAF66
:104110003DAF4EAF5FAF659760E774E982E39AE227
:104120000E94ED1165966CAD7DAD8EAD9FAD65972E
:104130000E9440128DE894E90E944F1261961EAED3
:104140001FAE619703E010E099CF0197029768F4E2
:10415000C114D104E104F10441F40E947D056B0116
:104160007C01C418D508E608F70833E0231A3108A3
:1041700042E02416310470F481149104A104B104C6
:1041800009F0E4C00E947D054B015C01841895088C
:10419000A608B708C114D104E104F10409F46ECFF4
:1041A00081149104A104B10409F468CFC401C814B6
:1041B000D904EA04FB0408F4C601092E000CAA0B7A
:1041C000BB0B8C159D05AE05BF05A1F581E090E008
:1041D0002F968EAF9FAF2F9787E994E90E944F12D9
:1041E00063EA74E982E39AE20E94ED11C701B60125
:1041F0000E94401267EB74E982E39AE20E94ED119B
:10420000C501B4010E9440126BEC74E982E39AE2AA
:104210000E94ED114AE02F96EEADFFAD2F97BF0142
:10422000FF0F880B990B0E94FC1182E39AE20E9417
:104230003C1288CFA2E0B0E02F96AEAFBFAF2F9771
:10424000CBCF61962EAD3FAD61972E964FAD2E9799
:1042500061E070E0232BD1F465968CAD9DADAEADE1
:10426000BFAD659743E0843F9140A105B10560F083
:1042700065962CAD3DAD4EAD5FAD6597293E3340A3
:1042800041055105C0F141E070E060E0CE010196CA
:104290000E94DA102F96AEADBFAD2F97119769F53A
:1042A0008AEE99E20E94B11188EF99E20E94B11161
:1042B0008CED99E20E9494118EEC99E20E94941187
:1042C000F4E02F16310409F44DCE232809F4D6CE9C
:1042D0002D96AEADBFAD2D97E0E41D92EA95E9F7BE
:1042E000C12CD12C7601812C912C54012F961EAE1D
:1042F0001FAE2F9792CE42E0C7CF2F96EEADFFAD07
:104300002F97329789F48AEE99E20E94941188EFF0
:1043100099E20E9494118CED99E20E94B1118EEC09
:1043200099E20E94B111CCCF88EF99E20E949411DA
:104330008AEE99E20E94B1118CED99E20E949411EB
:10434000EECF61961EAE1FAE619798CEC114D10418
:10435000E104F10409F02ACF91CE1F920F920FB61B
:104360000F9211242F933F934F935F936F937F93FB
:104370008F939F93AF93BF93EF93FF9382E39AE260
:104380000E945103FF91EF91BF91AF919F918F9147
:104390007F916F915F914F913F912F910F900FBE41
:1043A0000F901F9018951F920F920FB60F92112425
:1043B0002F933F934F935F936F937F938F939F932D
:1043C000AF93BF93EF93FF93E0913E2AF0913F2A82
:1043D000818181FD2FC060818091442A8F5F8F731E
:1043E0009091452A891741F0E091442AF0E0EE5C73
:1043F000F54D618F8093442A8091CB2A9091CC2AED
:10440000009739F0DC01ED91FC910190F081E02DF5
:104410000995FF91EF91BF91AF919F918F917F91FE
:104420006F915F914F913F912F910F900FBE0F9021
:104430001F9018958081EDCF1F920F920FB60F92AB
:1044400011242F933F934F935F936F937F938F9399
:104450009F93AF93BF9340916329509164296091DA
:104460006529709166298091612990916229209136
:10447000692930916A29420F531F611D711D2091D6
:10448000672930916829820F931F883E23E09207A5
:1044900030F0885E93404F5F5F4F6F4F7F4F809348
:1044A0006129909362294093632950936429609312
:1044B00065297093662980915D2990915E29A0916C
:1044C0005F29B09160290196A11DB11D80935D29DE
:1044D00090935E29A0935F29B093602981E0809337
:1044E000B60ABF91AF919F918F917F916F915F912C
:1044F0004F913F912F910F900FBE0F901F901895E5
:104500001F920F920FB60F9211242F933F934F9348
:104510005F936F937F938F939F93AF93BF93CF934B
:10452000EF93FF93C091AB08C2FF0AC010925029CD
:1045300010924F2910924E2984E00E94BF0D14C0A2
:10454000C6FF2FC080914D29813051F480915029B0
:10455000E0914B29F0914C2990E0099510924D295A
:10456000C0FF14C00E94CF0DFF91EF91CF91BF917A
:10457000AF919F918F917F916F915F914F913F91FB
:104580002F910F900FBE0F901F90189580E480938D
:10459000AB0881E00E94BF0D8091AB0885FFE4CF9E
:1045A000E1CFC7FF5CC0C3FF08C010925029109232
:1045B0004F2910924E2983E0C0CF8091A9088066D0
:1045C0008093A9088091AB0881FF2CC080914F296E
:1045D000882349F08091AB0884FF05C082E0809376
:1045E000AA0881E0AACF90914F2980914E2998176F
:1045F000A8F4E0914F298091462990914729E80F2E
:10460000F92FF11D80818093AD0880914F298F5F34
:1046100080934F2983E08093AA08A6CF82E08093FD
:10462000AA088BCF9091502980914A29981790F42D
:104630008091AD08E0915029209148293091492975
:10464000E20FF32FF11D8083809150298F5F8093BB
:104650005029E0CF86E08093AA0882E06ECF85E003
:104660006CCF1F920F920FB60F9211242F933F938E
:104670008F939F93EF93FF938091A508982F9C7041
:10468000E1F08091A50894E082FF93E090935B298C
:104690008093A50881E090E080935129909352295E
:1046A00010925C29FF91EF919F918F913F912F91F3
:1046B0000F900FBE0F901F90189586FF4EC020914F
:1046C0005829909157298091A50884FF15C08091A1
:1046D0005429882379F083E08093A40885E08093AF
:1046E0005B2910925C2981E090E08093512990939E
:1046F0005229D8CF81E0F0CF80915629821790F4CB
:10470000E09156298091592990915A29E80FF92F63
:10471000F11D80818093A808809156298F5F809336
:104720005629C0CF80915529891760F484E090E024
:1047300080935129909352298091532981608093CD
:10474000A708B0CF80915429882329F083E0809373
:10475000A40881E0C4CF81E0FACF87FF40C09091E8
:104760005529809157299817D8F48091A808E0918D
:1047700055292091442930914529E20FF32FF11D4D
:104780008083809155298F5F809355299091572977
:10479000809155298917D8F482E08093A40882CFAC
:1047A00080915429882389F087E08093A40882E0CF
:1047B00080935B2910925C2981E090E080935129DD
:1047C00090935229109257296DCF85E0EECF8091BA
:1047D0005429882311F087E0BACF85E0B8CF86E06E
:1047E0007ECF0F931F93E2E3FAE21282138248EE28
:1047F00053E060E070E044835583668377838CEEFA
:1048000093E98083918380E698E08487958788E1A7
:10481000868789E1878780E4808B128A138A148ACD
:10482000158A86E2868B178A108E1092CB2A1092F8
:10483000CC2AAAEBB9E200E019E02DE330E00D93B9
:104840001D932D933C93139714961D921C921597CC
:1048500081E090E016968D939C931797A2ECB9E2B5
:1048600012961D921C92139714964D935D936D931F
:104870007C93179786E094E98D939C93ADECBAE214
:10488000ED93FC93119781E012968C93E6E0FAE2A7
:104890001282138228E030E0248335832683378315
:1048A0002087318722873387168A148615861686D5
:1048B0001786858B848B2FEF3FEF228B338B208BDA
:1048C000318B878B108E118E128E8EE294E980834D
:1048D00091838CEF99E20E948111E8EFF9E28EE07A
:1048E00090E081839283108213828EEE99E20E947F
:1048F0008111EAEEF9E28CE090E0818392831082EC
:10490000138280EE99E20E948111ECEDF9E282E0DF
:1049100090E0818392831082138282ED99E20E945B
:104920008111EEECF9E283E090E0818392831082C2
:1049300013821F910F91089588ED90E084BF9093AA
:10494000610080E094E2A4EFB0E0809300289093AF
:104950000128A0930228B093032880910206866064
:10496000809302068091000681608093000680910A
:1049700002068F7C809302068091A0008F7880933E
:10498000A000809102068061809302061092E205E9
:1049900081E08093E40583E08093010A8FEF90E04B
:1049A0008093260A9093270A80E890E08093380A43
:1049B0009093390A80933A0A90933B0A80933C0A79
:1049C00090933D0A8BE08093000A8091E505816019
:1049D0008093E5058091E50582608093E505E0E838
:1049E000FAE037E02FEF90E885E031832487958760
:1049F00080837096E03C4AE0F407B9F780E094E0E9
:104A000080936D2990936E2980916D2990916E29E4
:104A10002FEF30E0B9010E94B62760936B297093A5
:104A20006C2980916D2990916E29E8EEF3E0BF0129
:104A30000E94B6276093692970936A2980916D2935
:104A400090916E29BF010E94B627809367299093A9
:104A500068292093BC0A3093BD0A8091B50A816011
:104A60008093B50A84E08093B00A8091B00A816097
:104A70008093B00A789488EF99E28093AF2990935D
:104A8000B0298AEE99E28093B1299093B2298CEDF6
:104A900099E28093B3299093B4298EEC99E28093A4
:104AA000B5299093B629CFEAD9E28E01D801ED90CD
:104AB000FD908D0170E060E0F70181810E94C204E9
:104AC00061E070E0D70111968C910E946E04B9E20A
:104AD000073B1B0759F770E060E087E00E9438044D
:104AE00062E070E08DE00E94380462E070E08FE0E8
:104AF0000E94380462E070E084E00E94380462E0C2
:104B000070E085E00E94380464EF71E0899199912A
:104B10000E949C11E9E2C73BDE07B1F783E0809376
:104B2000060681E08093080680910B0680FFFCCF8B
:104B30009FB7F89480911006609111069FBF762F61
:104B4000682F072E000C880B990B611571058105E4
:104B5000910511F00E944A278091CD2A9091CE2A8A
:104B6000DC01ED91FC910684F785E02D40E052ECEC
:104B700061E070E0099580E78093312A82EC99E248
:104B80000E94AA0F6091312A82EC99E20E941B0FC9
:104B900061E282EC99E20E94D90E82EC99E20E94D5
:104BA000F40E6091312A82EC99E20E941B0F61E8B9
:104BB00082EC99E20E94D90E82EC99E20E94F40EF6
:104BC0006091312A82EC99E20E941B0F6FEE82EC19
:104BD00099E20E94D90E82EC99E20E94F40ECFEA8B
:104BE000D9E200E010E0FF24F3948091CD2A909167
:104BF000CE2ADC01ED91FC910084F185E02D099530
:104C0000892B49F18091CD2A9091CE2ADC01ED913A
:104C1000FC910084F185E02D0995892BE1F08091CC
:104C2000CD2A9091CE2ADC01ED91FC910284F3858E
:104C3000E02D09958B36910511F4F092CF2A8091E1
:104C4000CD2A9091CE2ADC01ED91FC910284F3856E
:104C5000E02D0995D7CF0E94E7136C018091B82908
:104C60009091B929009781F0019709F464C00E94DE
:104C70004D138FE699E20E9460120115110509F4A7
:104C8000B4CF0E940000B1CFE090B729EE2DF0E044
:104C9000EE0FFF1FE155F64DA080B180C5010E94C7
:104CA000B111B1E0CB16D10439F5C092B829D09238
:104CB000B929C5010E9494118091B72940E4849FCD
:104CC000C001112488519D464FE659E230E020E0B2
:104CD000FA01E20FF31FDC01A20FB31F6C91608396
:104CE0002F5F3F4F2830310599F70896485F5F4F97
:104CF000C417D50759F7BBCFE2E0CE1AD108F2E0CE
:104D0000CF16D104C8F6C5010E94941123E0E21227
:104D10000EC01092B729E091B729F0E0EE0FFF1F07
:104D2000E155F64D808191810E94B111C5CFE39488
:104D3000E092B729F0CFE091B729F0E0EE0FFF1F26
:104D4000E052FD460190F081E02D0995019721F494
:104D50001092B8291092B9290E94BA1188CF8F9267
:104D60009F92AF92BF92CF92DF92EF92FF92CF933A
:104D7000DF93EC01688179818A819B8161157105DE
:104D80008105910521F464E279ED8BE597E02DE151
:104D900033EF41E050E00E94532749015A019B0143
:104DA000AC01A7EAB1E40E9472276B017C01ACEE72
:104DB000B4EFA50194010E948027C60ED71EE81EFD
:104DC000F91EF7FE06C081E0C81AD108E10880E8A4
:104DD000F80AC882D982EA82FB82C701B6019F77AE
:104DE000DF91CF91FF90EF90DF90CF90BF90AF9089
:104DF0009F908F9008958F929F92AF92BF92CF9283
:104E0000DF92EF92FF9260910428709105288091C3
:104E1000062890910728611571058105910521F4F7
:104E200064E279ED8BE597E02DE133EF41E050E06E
:104E30000E94532749015A019B01AC01A7EAB1E442
:104E40000E9472276B017C01ACEEB4EFA5019401C6
:104E50000E948027C60ED71EE81EF91EF7FE06C068
:104E600081E0C81AD108E10880E8F80AC092042855
:104E7000D0920528E0920628F0920728C701B601D3
:104E80009F77FF90EF90DF90CF90BF90AF909F9073
:104E90008F900895609304287093052880930628C6
:104EA000909307280895052E97FB1EF400940E9406
:104EB0006A2757FD07D00E94852707FC03D04EF4D0
:104EC0000C946A2750954095309521953F4F4F4F50
:104ED0005F4F089590958095709561957F4F8F4FA6
:104EE0009F4F08950E94A727A59F900DB49F900DF6
:104EF000A49F800D911D11240895B7FF0C94722773
:104F00000E947227821B930B0895A1E21A2EAA1BFE
:104F1000BB1BFD010DC0AA1FBB1FEE1FFF1FA21769
:104F2000B307E407F50720F0A21BB30BE40BF50B66
:104F3000661F771F881F991F1A9469F760957095EF
:104F4000809590959B01AC01BD01CF010895A29F72
:104F5000B001B39FC001A39F700D811D1124911D4D
:104F6000B29F700D811D1124911D0895AA1BBB1BBA
:104F700051E107C0AA1FBB1FA617B70710F0A61B59
:104F8000B70B881F991F5A95A9F780959095BC017A
:104F9000CD01089597FD1094002E083098F0085028
:104FA000232F342F452F562F672F782F892F912DA0
:104FB000F4CF15949795879577956795579547956D
:104FC000379527950A95AAF71124002D08950024F6
:104FD000A7FD00942A1730054005500560057005AF
:104FE000800590050895EE0FFF1F0590F491E02DC8
:104FF00009940F931F93CF93DF938230910510F4A0
:1050000082E090E0E091042BF091052B30E020E06D
:10501000B0E0A0E0309799F42115310509F44AC0B9
:10502000281B390B24303105D8F58A819B81611505
:10503000710589F1FB0182839383FE0111C04081D8
:1050400051810281138148175907E0F04817590729
:1050500099F4109761F012960C93129713961C9383
:105060003296CF01DF91CF911F910F910895009358
:10507000042B1093052BF4CF2115310551F0421765
:10508000530738F0A901DB019A01BD01DF01F801E6
:10509000C1CFEF01F9CF8093042B9093052BCDCF97
:1050A000FE01E20FF31F819391932250310928836F
:1050B0003983D7CF2091022B3091032B232B41F43E
:1050C00020910A2830910B282093022B3093032B38
:1050D00020910828309109282115310541F42DB778
:1050E0003EB740910C2850910D28241B350BE091C0
:1050F000022BF091032BE217F307A0F42E1B3F0BBA
:105100002817390778F0AC014E5F5F4F2417350739
:1051100048F04E0F5F1F4093022B5093032B819357
:1051200091939FCFF0E0E0E09CCFCF93DF93009787
:10513000E9F0FC01329712821382A091042BB09106
:10514000052BED0130E020E01097A1F420813181A2
:10515000820F931F2091022B3091032B28173907C0
:1051600009F061C0E093022BF093032BDF91CF9104
:105170000895EA01CE17DF07E8F54A815B819E01B9
:1051800041155105B1F7E901EA83FB834991599132
:10519000C40FD51FEC17FD0761F480819181029641
:1051A000840F951FE90188839983828193818A8383
:1051B0009B83F0E0E0E012968D919C91139700970D
:1051C000B9F52D913C911197CD010296820F931F55
:1051D0002091022B3091032B2817390739F630978D
:1051E00051F51092042B1092052BA093022BB09333
:1051F000032BBCCFC283D38340815181840F951F81
:10520000C817D90761F44E5F5F4F88819981480FB5
:10521000591F408351838A819B8182839383211507
:10522000310509F0B0CFE093042BF093052B9ECF0E
:10523000FD01DC01C0CF12821382D7CF81E090E064
:10524000F8940C942A29DC0101C06D934150504020
:08525000E0F70895F894FFCF88
:10525800112810280F280E28F4015E01FA00960084
:10526800C8009600640032008813AC0DC409E80336
:10527800000000030001020000010100000000001E
:105288000000000000000000000005040005060200
:1052980004010300010001020302010002030405E6
:1052A80002030504020200050201050004010104CD
:1052B8000404030303030505030300000101201090
:1052C800012040041002080102010204080402013E
:1052D8000408102004082010121ABA14991C621F1E
:1052E80001010200000200000101020000020000AA
:1052F800020202020202020200000203030200008C
:10530800000002030302000002020202020202027B
:105318000000020000020101000002000002010179
:105328000000000000000000000000000003000072
:105338000000030000030000000003000003000059
:105348000000010101010000000001000000000050
:105358000000010000000000000001000000000043
:105368000000000000000000000003030303000029
:10537800000000000003000000000000000300001F
:105388000000030303030000000003000000000006
:1053980000000300000000000000030303030000F6
:1053A80000000000000000000000010101010000F1
:1053B80000010000000100000001000000010000E1
:1053C80000000101010100000000000100010000CF
:1053D80000000100000100000001000000010000C1
:1053E8000000000096030904FB02E7032C030A03EC
:1053F8001E039E1005053803360400000000D90E70
:10540800B40EE10F870CAD0E9A0E8B0EAA0F650F26
:10541800580F540F1B0FFC0EF40E2A0F220F640EA8
:105428005F0E000000000A0A0904E10F610D33074E
:10543800870CB00C880CA40C980CB70C870CD907F7
:10544800D8074E0C150CD00BB30B3B0BDC0A0D0A1E
:105458000077616974696E67005374617274004300
:105468006C617070656421004F6E6520706C6179A5
:1054780065722D3E207265616374696F6E5F746931
:105488006D653A200047616D65204F76657200545E
:10549800776F20706C617965727300506C61796503
:1054A800722031207265616374696F6E3A20005012
:1054B8006C617965722032207265616374696F6E00
:0C54C8003A200057696E6E65723A2000B1
:0E54D4000024F400010000000000062B800000
:00000001FF
